:10000000002000105D010000ED010000F50100007E
:1000100000000000000000000000000000000000E0
:10002000000000000000000000000000FD010000D2
:100030000000000000000000050200000D020000AA
:100040001502000015020000150200001502000054
:100050001502000015020000150200001502000044
:100060001502000015020000000000000000000062
:100070000000000000000000150200001502000052
:100080001502000015020000150200001502000014
:100090001502000015020000150200001502000004
:1000A00015020000150200001502000015020000F4
:1000B0000000000000000000150200000000000029
:1000C000F03B00000000001014000000F03B0000B6
:1000D0000040002000000000140000107401000027
:1000E000004000200000000080B588B000AFF8603C
:1000F000B9607A60BB68FB61FB68BB6100237B6110
:100100000AE0FB691A1DFA61BA69111DB96112682A
:100110001A607B6904337B617A697B689A42F0D309
:10012000C046BD4608B080BD80B584B000AF7860E1
:1001300039607B68FB600023BB6007E0FB681A1D29
:10014000FA6000221A60BB680433BB60BA683B687F
:100150009A42F3D3C046BD4604B080BD80B586B098
:1001600000AF1E4B3B613B691B68C02212051A435E
:100170003B691A601A4B7B6114E07B691A1D7A6136
:100180001B68FB607B691A1D7A611B68BB607B6919
:100190001A1D7A611B687B607A68B968FB68180071
:1001A000FFF7A2FF7A690F4B9A42E6D30FE07B6913
:1001B0001A1D7A611B68BB607B691A1D7A611B6816
:1001C0007B607A68BB6811001800FFF7ADFF7A69A1
:1001D000054B9A42EBD300F013FEFEE7808004400B
:1001E000C0000000D8000000E800000080B500AFAB
:1001F000FEE7C04680B500AFFEE7C04680B500AF61
:10020000FEE7C04680B500AFFEE7C04680B500AF50
:10021000FEE7C04680B500AFFEE7C046F0B58DB042
:1002200000AFF8616B46BB61FB69180002F0E6FAAB
:1002300003005A1EFA621A00BA600022FA60B86817
:10024000F9680200520F0E00F6007E617E691643C7
:100250007E610200D2003A611A003A6000227A60A0
:10026000386879680200520F0E00F500154302004D
:10027000D4000733DB08DB006A46D31A9D466B4681
:100280000033BB62BB6AFA691100180002F094FAED
:10029000BB6A7B627B6A180002F0B0FA0300013B84
:1002A0007A6AD3181B780A2B0AD07B6A180002F0EE
:1002B000A5FA0300013B7A6AD3181B780D2B09D1EC
:1002C0007B6A180002F09AFA0300013B7A6AD3189D
:1002D00000221A70BB6A180001F0DEFAC046BB6942
:1002E0009D46BD460DB0F0BD80B58EB000AF7860C4
:1002F00039600C23F9187B681022180001F048FBC4
:10030000184A2023FB181100180002F055FA0C239C
:10031000FB18180002F072FA03007B633A687B6BEB
:10032000D31A7B6309E0104A2023FB181100180040
:1003300002F034FA7B6B013B7B637B6B002BF2DCBE
:100340000C23FA182023FB181100180002F026FADB
:100350002023FB181800FFF761FFC046BD460EB012
:1003600080BDC046E4380000E838000080B500AF2A
:10037000064B1800FFF752FF054800688546054800
:1003800000688746C046BD4680BDC046EC380000C8
:10039000004100000441000080B500AF00231800B8
:1003A000BD4680BD80B500AF00231800BD4680BDAE
:1003B00080B582B000AF00F007FD03007B60114BF9
:1003C0001800FFF72BFF7B6808211800FFF78CFF50
:1003D0000D4B1800FFF722FF7B680C4A934205D0B3
:1003E0000B4A934205D123237B6005E023237B60E6
:1003F00002E000237B60C0467B681800BD4602B067
:1004000080BDC046083900001439000040BC00001F
:1004100040BC010080B582B000AF786039607B6875
:100420001800BD4602B080BD80B5ECB000AF78606A
:100430000023C8225200BA1813600123C8225200B8
:10044000BA18136086235B00FA18EC4B10001900F1
:1004500040231A0000F0DDFCE94BD8225200BA1804
:10046000D218E84B1000190080235B001A0000F03E
:10047000D0FCA6235B00FB1848221A60A6235B0071
:10048000FB1869225A60A6235B00FB188022120623
:100490009A60A6235B00FB180022DA60A6235B00AB
:1004A000FB1800221A61A6235B00FB1800225A6188
:1004B000A6235B00FB1800229A61A6235B00FB18B1
:1004C0000022DA61A6235B00FB1800221A62A62331
:1004D0005B00FB1800225A62A6235B00FB18002277
:1004E0009A62A6235B00FB180022DA62A6235B0057
:1004F000FB1800221A63A6235B00FB1800225A6334
:10050000A6235B00FB1800229A63A6235B00FB185E
:100510000222DA63BC4B1B68D0225200BA18136067
:10052000BA4B1B68CE225200BA181360B84B1B6836
:10053000CC225200BA181360B64B1B68CA22520074
:10054000BA1813600023D6225200BA18136023E1B0
:10055000D6235B00FB181B680F2B23DCCE235B002C
:10056000FB181B68CC225200BA18126813400AD13B
:10057000CE235B00FB181B68DB43CA225200BA186B
:100580001268134001D0012300E00023D42252005E
:10059000BA181360D6235B00FB181B68D2225200E6
:1005A000BA181360D6235B00FB181B68102B05DC00
:1005B000D6235B00FB181B681F2B2ADCCC235B00B7
:1005C000FB181A68CE235B00FB181B685340CA2235
:1005D0005200BA1812681A40CC235B00FB181B6843
:1005E0005340D4225200BA181360D6235B00FB1884
:1005F0001A6813009B009B180133874A134004D5E7
:10060000013B1022524213430133D2225200BA1846
:100610001360D6235B00FB181B68202B05DCD62358
:100620005B00FB181B682F2B25DCCE235B00FB181F
:100630001A68CC235B00FB181B685A40CA235B0076
:10064000FB181B685340D4225200BA181360D623FB
:100650005B00FB181A6813005B009B1801336E4A9D
:10066000134004D5013B1022524213430133D222DE
:100670005200BA181360D6235B00FB181B68302B9E
:1006800005DCD6235B00FB181B683F2B25DCCA2347
:100690005B00FB181B68DA43CE235B00FB181B686A
:1006A0001A43CC235B00FB181B685340D422520032
:1006B000BA181360D6235B00FB181A681300DB001E
:1006C0009B1A554A134004D5013B10225242134352
:1006D0000133D2225200BA181360CA235B00FB1800
:1006E0001B68C6225200BA181360CC235B00FB18AB
:1006F0001B68CA225200BA181360CE235B00FB1895
:100700001B68CC225200BA181360D0235B00FB1880
:100710001A68D4235B00FB181B68D218384BD82109
:1007200049008C46BC446344D621490079180968C5
:100730008900CB58D218A6235B00FB18D2214900B0
:10074000791809688900CB58D01886235B00FA18FD
:10075000D6235B00FB181B68D3181B781900FFF722
:1007600059FE0200CE235B00FB181B689B18CE22AB
:100770005200BA181360C6235B00FB181B68D02216
:100780005200BA181360D6235B00FB181B680133B4
:10079000D6225200BA181360D6235B00FB181B68E0
:1007A0003F2B00DCD4E6184B1A68D0235B00FB1803
:1007B0001B68D218144B1A60144B1A68CE235B00C6
:1007C000FB181B68D218114B1A60114B1A68CC2306
:1007D0005B00FB181B68D2180D4B1A600D4B1A6892
:1007E000CA235B00FB181B68D2180A4B1A6000234F
:1007F000D6225200BA18136028E0C046183900000B
:100800005CFEFFFF583900000000001004000010DB
:10081000080000100C0000100F000080D6235B00C1
:10082000FB181B687A68D318D6225200BA181268CF
:10083000013279688A1812781A70D6235B00FB1887
:100840001B680133D6225200BA181360D6235B000E
:10085000FB181B680E2BE1DD0023D6225200BA18CC
:10086000136017E0D6235B00FB181B687A68D31867
:10087000D6225200BA181268013279688A181278A2
:100880001A70D6235B00FB181B680133D622520076
:10089000BA181360D6235B00FB181B680E2BE1DD32
:1008A0000023D6225200BA18136017E0D6235B004B
:1008B000FB181B687A68D318D6225200BA1812683F
:1008C000013279688A1812781A70D6235B00FB18F7
:1008D0001B680133D6225200BA181360D6235B007E
:1008E000FB181B680E2BE1DD0023D6225200BA183C
:1008F000136017E0D6235B00FB181B687A68D318D7
:10090000D6225200BA181268013279688A18127811
:100910001A70D6235B00FB181B680133D6225200E5
:10092000BA181360D6235B00FB181B680E2BE1DDA1
:100930007B68DA1C0C4B1B68DBB213707B689A1C5B
:100940000A4B1B68DBB213707B685A1C084B1B6890
:10095000DBB21370074B1B68DAB27B681A70012395
:100960001800BD466CB080BD0000001004000010EF
:10097000080000100C00001080B582B000AF012309
:100980007B607B68002B12D1144B1800FFF746FCEC
:10099000134B180000F0C2F8030002211800FFF703
:1009A000A3FC104B1800FFF739FC012311E00E4B9C
:1009B0001800FFF733FC0A4B180000F0AFF80300F3
:1009C00002211800FFF790FC064B1800FFF726FCE9
:1009D00000231800BD4602B080BDC046583A000052
:1009E0000A40000014390000803A000080B582B04F
:1009F00000AF00237B602C4B180000F08FF8031E23
:100A000042D02A4B1800FFF709FC274B180000F0D2
:100A100085F8030002211800FFF766FC244B18003C
:100A2000FFF7FCFBBF237B60224A234BBF2118004A
:100A300000F026F9031E11D1204B1800FFF7EEFB42
:100A40001D4B180000F06AF8030002211800FFF7A0
:100A50004BFC174B1800FFF7E1FB10E0184B180098
:100A6000FFF7DCFB144B180000F058F803000221DC
:100A70001800FFF739FC0E4B1800FFF7CFFBFFF70C
:100A80007BFF031E04D1FEE70E4B1800FFF7C6FBE9
:100A9000FFF78EFC031E232B01D0012300E001236E
:100AA0001800BD4602B080BD0A400000A03A000018
:100AB00014390000E02E00000B400000B83A00009E
:100AC000D03A0000F03A000080B588B000AF114B7A
:100AD0001800FFF7A3FB3B001800FFF7A5FC3B0045
:100AE0001800FFF79BFB0C4B1800FFF797FBFFF775
:100AF00053FC031E01D0FFF755FCFFF777FF031EE1
:100B000001D0FFF733FCFFF771FF031E01D0FFF7A1
:100B10002DFCFEE7143B0000303B000080B584B0A4
:100B200000AF78600F23FB1800221A700F23FB1808
:100B30007A6812781A700F23FB181B781800BD46CC
:100B400004B080BD80B586B000AF786000237B61C3
:100B500080235B01FB6000233B6106E03A69FB6890
:100B6000D3183B617B6901337B613A697B689A42A8
:100B7000F4DB7B691800BD4606B080BD80B582B04D
:100B800000AF786039600F4B32221A607A680D4BE3
:100B90005A603A680B4B9A600B4B1B680B49094A29
:100BA00010009847C046094B1B680B2BFBD0074B26
:100BB0001B68002B01D1002300E001231800BD4673
:100BC00002B080BD7401001010000010640100101C
:100BD00090B585B000AFF860B9607A603B607A6824
:100BE00080235B009A4210D07A6880239B009A424F
:100BF0000BD07A688023DB009A4206D07A68802383
:100C00005B019A4201D0012330E0FB681800FFF736
:100C100099FF0400FA687B68D3181800FFF792FF69
:100C2000030019002000FFF7A9FF124B33221A60BE
:100C3000FA68104B5A60BA680E4B9A607A680D4B8E
:100C4000DA603A680B4B1A610B4B1B680B49094A77
:100C500010009847C046094B1B680B2BFBD0074B75
:100C60001B68002B01D1002300E001231800BD46C2
:100C700005B090BD74010010100000106401001058
:100C800090B5C9B000AFF8607A604D4B9022520029
:100C90009446BC4463440A1C1A7080235B008A2279
:100CA0005200BA18136000238E225200BA18136043
:100CB0000CE08E235B00FB181A688A235B00FB188C
:100CC0001B68D3188E225200BA1813608E235B0063
:100CD000FB181A68FB689A42EBDB8E235B00FB185B
:100CE0001A688A235B00FB181B68D31A8E225200F5
:100CF000BA18136000238C225200BA18136022E045
:100D00008E235B00FB181A688C235B00FB181B68A2
:100D1000D3181800FFF702FF03001900294B902297
:100D20005200BA18D2188C235B00FB181B68D3182A
:100D30000A1C1A708C235B00FB181B6801338C2281
:100D40005200BA1813608C235B00FB181B68FF2B42
:100D5000D6DDFA688E235B00FB181B68D31A194A8C
:100D6000902149008C46BC446244154990204000C3
:100D70008446BC4461440978D1541423F9187C6832
:100D800080235A008E235B00FB1818682300FFF7AE
:100D90001FFFFB681800FFF7C1FE03001A00084B95
:100DA000902149008C46BC4463441B78934201D196
:100DB000002300E001231800BD4649B090BDC046A5
:100DC000EBFEFFFFF4FEFFFF80B500AF094B3622BC
:100DD0001A60094B1B680949064A10009847074BDF
:100DE0001B68002B02D1054B5B6800E00123180053
:100DF000BD4680BD74010010100000106401001099
:100E0000002210B51100100000F06EFDFFF75CFE2F
:100E100010BD10B502F00BFD10BD10B541180A78D9
:100E2000342A01DC00201CE00B00352A06D10133F6
:100E30001A78302AFBD0002AF4D00B003024013B72
:100E40001A78392A01D11C70F9E701321A70037837
:100E5000302BE7D00B1A03D40B7801398B70F9E7EC
:100E6000012010BDF8B50A2704000D008E1F7F4237
:100E7000B5420BD020000A2102F0A4F83B00434306
:100E800030341C19013D6C700400F1E7F8BDFFFF20
:100E90000EB430B592B015AB10CB0500282200215E
:100EA00008A8079301F0D4FC0A2301220B93114BED
:100EB00000940A93104B52420293079B08A8019397
:100EC0000C4B089500F098FD0A9B04000593013B2C
:100ED0000A93002B03DB0023089A137003E008A990
:100EE000002001F0DBFC200012B030BC08BC03B0D5
:100EF0001847C046FFFFFF7FFD0E0000F0B54D68AC
:100F0000A1B017000E68B14A04932B0C0590099606
:100F100008951340934224D100232D032D0BFB7021
:100F20002E436E33002E17D169227B70083BBB70B5
:100F3000089B3A70002B01DAA54B08E0049AA54BF8
:100F4000920704D4049AA44B520700D4A34B269AC8
:100F50000320136000F06AFC61223B707A70BB7062
:100F6000F4E72023059A00249A43412A00D15DE248
:100F7000002200233000290002F0B6FBA04208D076
:100F8000802109066B181D000123099A0A93160097
:100F900000E00A90002200233000290002F08CFBC0
:100FA000002800D024E213AA3000290001F08AFDB5
:100FB000149015912E20FA21139CFF306043884B2A
:100FC0008900C01801F0FEFF8649021B06000020C0
:100FD00001F0B8FD1E901F91002E05DA824A834B66
:100FE00074421A921B9306E00022814B1A921B93C3
:100FF000002E17D0340001252C4209D11A981B99D4
:101000001A9A1B9B02F01CF864101A901B91F3E7CC
:101010001A981B991E9A1F9B02F012F81E901F919E
:10102000012CEBD1149815991E9A1F9B02F0C6F85B
:10103000169017911698179900226E4B02F054FBE8
:10104000002811D01698179900226B4B01F0F8FF79
:10105000169017911E981F990022674B02F0AEF868
:10106000013E1E901F91E5E7169817990022634BE9
:1010700002F096FB002811D01698179900225E4BBB
:1010800002F09CF8169017911E981F9900225A4B57
:1010900001F0D6FF01361E901F91E5E716981799CB
:1010A00002F0AEFA734205000B93002E00DB0B96A4
:1010B000139B2800F41A02F0F4FA220001F042FD1A
:1010C000002400231690179118931994002E33DAF8
:1010D000454A464B00241A921B9300231C931D94EF
:1010E0001A9A1B9B1A981B990022069207931C9B25
:1010F0001D9C0C930D94069A079B02F005F90C9A1F
:101100000D9B02F0E5F9069B079C1C901D911A931C
:101110001B941A981B990022354B01F091FF020095
:101120000B0000202F4902F0EFF80022304B02F0B4
:1011300045F81C901D910AE000222D4B00241A92C4
:101140001B9300231C931D94002E00D1A6E00B9C42
:1011500001231C4254D11A981B991C9A1D9B06927C
:1011600007931C9A1D9B0C920D9302000B0002F03A
:10117000AFF9069A079B02F0ABF90C9A0D9B01F0B0
:101180005FFF1C901D911A981B991A9A1B9B01F0E6
:1011900057FF1A901B911A9A1B9B1A981B990022B1
:1011A000069207931C9A1D9B0C920D93069A079B1F
:1011B00002F0AAF80C9A0D9B02F08AF9069A079B96
:1011C0001C901D9164101A921B93C1E7F07F0000E0
:1011D000813B00004F3B0000513B0000E03B000022
:1011E00084EAFFFF0000F03F9A9999999999C93FC5
:1011F00000001440006AF8400000244080842E4122
:10120000169A179B069207931C9A1D9B1A981B9976
:101210000C920D931C9A1D9B0E920F93189A199B7A
:10122000109211930E9A0F9B02F052F9109A119B93
:1012300001F006FF0C9A0D9B0E900F9106980799EE
:1012400001F0FEFE02000B000E980F9902F040F92B
:10125000189019911A981B99169A179B01F0F0FE95
:1012600016901791169A179B1698179900220692B6
:101270000793189A199B0C920D93069A079B02F0FC
:1012800043F80C9A0D9B02F023F9069A079B1890DD
:10129000199116921793012C00D05CE716981799B4
:1012A000149A159B02F04EFA002801D1013DFFE689
:1012B000169A179B1498159902F026F81490159118
:1012C000189A199B1498159902F01EF8149015910C
:1012D0001E9A1F9B1498159901F070FF1490159198
:1012E000149815990022BA4B01F0AAFE149015919A
:1012F0001498159902F084F9149A159B040006922B
:10130000079302F0CEF902000B000698079901F04E
:10131000FBFF0022AE4B01F093FE14901591149840
:10132000159902F06DF90690069B002B06DAA94A82
:10133000069B944663440693013CF5E7A64A06994A
:10134000A54B914206DDA549069B8C466344069356
:101350000134F4E7002C03DA9E4A013DA418F9E7B2
:101360009C4203DD9D4A0135A418F9E79C4B9D4240
:101370001ADC9C49200001F025FE0A236B430B90E8
:10138000C5189849069801F01DFE974B0B9A013E2F
:101390005A4314190A2243435443069A04199B18CA
:1013A0000A225A43069229E08B4B9D4226DD0A21F0
:1013B000280001F007FE0A235B4243435D19854B79
:1013C0000B905D432D190A21280001F0FBFD04005C
:1013D0000A20404260437F4B40195843069B0A2134
:1013E0001818053001F0EEFD013606900B9D05E062
:1013F000002305261C001D00764206933023B91DEC
:101400003B702800FFF72EFD390020000C31FFF75C
:1014100029FD390006981231FFF724FD3023FB74B3
:101420000023741D3B750A9BA4001C43E30701D5F0
:101430006E4B08E0049A6E4B920704D4049A6D4BED
:10144000520700D46C4B269A136001239C43E0178B
:1014500002331840059B0419A410612B10D006DC40
:10146000452B6DD0472B49D0412B45D108E0059B3A
:10147000662B00D106E1672B40D0652B3CD15FE0A5
:10148000089B1C035A00240B520D02D05B4BD3184F
:1014900005E0099B234301D1130000E0574B279936
:1014A0000D68002D0FD1049909070CD405985449F3
:1014B000612800D053495042424131243800A21AD9
:1014C000FFF7E6FC10E005984F49612800D04F492E
:1014D0005042424131200293099B821A00930194A9
:1014E0002B003800FFF7D4FC089A434B002A00DA9F
:1014F0003E4B269A136099E1672305938023049A53
:101500001B011A43279B04921B680693002B02DCE5
:101510000123279A1360279B12211B68112B00DCE3
:10152000591C3800FFF779FC279B24181B689C4244
:1015300000DAA0E0279A013B1360059B023B05936C
:10154000279B1B68112B05DD299A113B1360112382
:10155000279A13608026279B36011B6806939D1CE3
:10156000049B1E4004D129003800FFF756FC2418C4
:101570007B783B70279B1B68002B03D1244B049A7C
:101580001A4202D02E237B7000E00125299B1B68A4
:10159000002B02DD3E237B550135002E0DD0049B30
:1015A0001B070AD46B1EFA5C302A01D11D00F9E733
:1015B0003E2AFBD02E2A00D11D006A46127D6B1CEC
:1015C0007A550235002C25DA64422E002D2223E0C4
:1015D00080842E4140420F003F420F00C0BDF0FF0B
:1015E0009F860100A08601006079FEFF813B00001C
:1015F0004F3B0000513B0000E03B000001FCFFFFBF
:10160000533B00005B3B0000633B0000723B00006B
:10161000080800002E002B22FA54854B9C420BDD5B
:10162000FA212000890001F0CDFC030030337B5506
:10163000804B6E1C58432418632C0BDD2000642162
:1016400001F0C0FC03003033BB5564235B425843B8
:101650000136241820000A2101F0B4FCC0B20300B6
:101660003033BB550A235B42584330340019BA1952
:101670005070B01CDAE0221D00DA5BE7621C9B1A96
:10168000279A1360279B1E6880231B01002C51DAC8
:10169000624205926142721C91420BDD30233B7025
:1016A000023B7B70279B02251B680593059A299BAB
:1016B0001A603AE0A619B51C122D03DD1325299AEC
:1016C000113E1660049A1A420FD129003800FFF724
:1016D000A4FB002809D0E34301350593002B04D176
:1016E0007B783B702E237B701FE0059A7B19012AC3
:1016F00009D1DA1B002A03DD1A78013B9A70F8E75A
:1017000001353023EDE7DA1B002A03DD1A78013BAF
:10171000DA70F8E730233B70023B7B700E33BB700E
:10172000059B289A013B02351360299B1B68002BFF
:1017300026DC5BE0A619B51C122D40DD049A1325AA
:101740001A4207D129003800FFF767FB002801D0B3
:10175000013401356A1E3B00944215DA5A781A703A
:101760000133DA1B9442F9DA2E223B195A70279B77
:101770001B68E4180593299B113C1C60002C35D094
:101780003E237B55013531E0597819700133D91B5F
:101790008A42F9DC3C227B19013B1A70641B289BAE
:1017A0000E3A02341C607A55279A6B1C1268002A84
:1017B0001BD0299902350A603E22FA5416E0049A99
:1017C0001A4207D129003800FFF727FB002801D073
:1017D0000134F51C3B005A781A700133DA1B94422D
:1017E000F9DA2E233C19637000E01D00049B1B05F1
:1017F00010D5049B28001B0718D46B1EFA5C302AF6
:1018000001D11D00F9E73E2AFBD028002E2A0DD178
:1018100018000BE0279B28001B68002B06D1049AB8
:1018200008331A4013005A425341E81A21B0F0BD60
:10183000E703000018FCFFFFF0B50C0091B01500A5
:1018400007002822002106A81E0001F001F80A2343
:10185000621E002409930E4B009508930D4B0196D0
:10186000029306A82300069700F0C6F8089B05001F
:101870000593013B0893A34202DB069B1C7003E027
:1018800006A9200001F00AF8280011B0F0BDC046FA
:10189000FFFFFF7FFD0E00000FB473B506AB20CB3A
:1018A00001212A0068460193FFF7C6FF041E14DDDC
:1018B000461C300001F0A8F9009000280DD0019BD3
:1018C0002A003100FFF7B8FF064B22000099D86BC1
:1018D00002F002F8009801F0FDF9200076BC08BC87
:1018E00004B0184718000010A02270B5214C520017
:1018F0000021200000F0ACFFC02001F003FA1E4DD3
:10190000C0220021286000F0A3FF2B681B4A1900A9
:10191000C0311360183328328B42FAD122001849A3
:10192000002001F063F8802380225B01D2000021B7
:10193000200000F00FFF134D134C2900220001205E
:1019400001F054F8802380225B01D20000212000A6
:1019500000F000FF0D4C29002200022001F046F8A3
:10196000802380225B01D2000021200000F0F2FEE3
:1019700070BDC04618000010140000103C0000109C
:10198000833B0000853B0000400000106800001011
:101990000023F7B50E00171E01930A2F01D19842BC
:1019A00022DB34003900050001F00FFB02007A430E
:1019B000AD1A104A631C525D2270002801D01C0031
:1019C000F0E7019A002A02D02D22A31C62700021A8
:1019D0005A1E197033009A420AD911781878013AC0
:1019E000507019700133F6E7012340420193D8E7A4
:1019F0003000FEBD873B0000F0B5CFB00A920B93DC
:101A000000220400549B559F069218785A1C079296
:101A1000002801D100F09BFE252807D18021042356
:101A20000025079A243889009C4624E0069B0B9ADF
:101A30005D1CDB179A4208DC01D000F075FE0A9BA2
:101A4000069A934201D800F06FFEA368013BA360A1
:101A5000002B05DB23685A1C2260187000F064FE1E
:101A6000210000F01BFF00F05FFE2B2E08D92D2E69
:101A70000CD105431A001678531C2B2EF5D109E022
:101A8000202E09D0232E0AD1082206E0302E06D1BE
:101A90000D43EFE7022200E062461543EAE72A2EF3
:101AA0000BD139683B1D002902DA0120494245402B
:101AB000901C079056781F0008E000213200303A51
:101AC000D0B20793092801D800F032FEC8430023A2
:101AD000C017014022910E932E2E1ED1079B1E7817
:101AE0002A2E07D13B6804370E93079B5E7802339A
:101AF00007930AE00A20079B01333200303AD1B243
:101B00000793092901D800F01AFE0E9B002B02DB77
:101B100010231D4301E000230E936C2E0FD1079B71
:101B20001E786C2E06D15E7860231D43079B02331E
:101B3000079304E0079B0133079320231D434C2E9A
:101B400001D0712E05D1079B1E7860231D43079B92
:101B50001DE0682E10D1079B1E78682E06D18023C9
:101B60005B001D43079B5E78023311E0079B013346
:101B7000079380231D430CE06A2E02D140231D43AE
:101B800003E07A2E01D0742E03D1079B1E78013317
:101B90000793672E1EDC652E00DB9BE2472E00D1EB
:101BA00098E209DC412E00D18EE2452E00D191E26F
:101BB000002E00D1B5E027E0612E00D184E203DCE5
:101BC000582E00D187E11FE0632E19D0642E00D17A
:101BD00029E219E0702E00D1CBE108DC6E2E00D195
:101BE000A5E000DDCFE1692E00D11CE20CE0752EEE
:101BF00000D1EEE1782E00D194E1732E04D1B5E04E
:101C00003B1D10933E6800E01097229B013B0E9312
:101C100001232B40119337D13027AB0500D4103F5F
:101C20000022002308920993089A069B08999B18A2
:101C3000229A023A521A0E9225D408980999069BC4
:101C40002693DB172793269A279B12184B410B9953
:101C5000994203DC10D10A9991420DD9A368013B46
:101C6000A360002B04DB23685A1C22601F7003E072
:101C70002100380000F012FE089A099B0120002183
:101C800012184B41CEE70693069B0B9A5D1CDB179F
:101C90009A4204DC11D10A9B069A93420DD9A3689B
:101CA000013BA360002B04DB23685A1C22601E70DA
:101CB00003E02100300000F0F1FD119B0695002BA0
:101CC00001D100F02FFD00260027F3430E9AD342E6
:101CD00021D4EB1728952993289A299B92197B41A7
:101CE0000B99994203DC11D10A9991420ED9A3684C
:101CF000013BA360002B05DB23685A1C22602022D5
:101D00001A7003E02100202000F0C8FD012200230A
:101D1000B6185F41D9E7D343DB1713405B1900F0D6
:101D200000FD079B1097013B079300F0FBFC3B1D58
:101D300010933B686A0605D5069A1A60D2175A6056
:101D400000F0F0FCAA060DD4EA0504D56A46127E1E
:101D50001A7000F0E7FC2A0604D56A46128B1A8036
:101D600000F0E0FC069A1A6000F0DCFC3B1D1093CA
:101D70003B681493002B01D1B74B1493149800F0D7
:101D80003DFD1190EB0603D50E9A904200DD1192B5
:101D9000229B119A9B1A089301232B400E9334D156
:101DA0003027AB0500D4103F00250026089B013BDF
:101DB0005A1B21D4069B0B992A93DB172B932A9A43
:101DC0002B9B52197341994203DC10D10A9991421D
:101DD0000DD9A368013BA360002B04DB23685A1CC8
:101DE00022601F7003E02100380000F057FD01223F
:101DF0000023AD185E41D9E7089AD043C0171040C0
:101E0000069A1B1A12180692089300260027119BA7
:101E1000B34224DD069B0B992C93DB172D932C9A50
:101E20002D9B92197B41994203DC13D10A9991426F
:101E300010D9A368149A013BA3609219002B05DB0B
:101E40002368591C216012781A7003E01078210071
:101E500000F024FD01220023B6185F41D7E7DB43E1
:101E6000119EDB171E40069B9B1906930E9B002BB1
:101E700001D100F057FC00260027F343089AD34213
:101E800022D4069B0B992E93DB172F932E9A2F9B10
:101E900092197B41994203DC11D10A9991420ED9E2
:101EA000A368013BA360002B05DB23685A1C22605A
:101EB00020221A7003E02100202000F0EFFC012214
:101EC0000023B6185F41D8E7D043069BC0171040E7
:101ED0001B1800F026FC40232B400AD007230737AD
:101EE0009F433B00083310933A687B680492059344
:101EF00004E03A1D10923A680593049280232B4027
:101F000004D06B461B8A0493002304E0EA0503D542
:101F10006A46127C04920593504F2B0700D4504F11
:101F2000504BCBE040232B400AD0072307379F4379
:101F30003B00083310933A687B680492059304E0F1
:101F40003A1D10923A680593049280232B4004D0E6
:101F50006B461B8A0493002304E0EA0503D56A4616
:101F6000127C04920593404F2B0700D43C4F3F4B0B
:101F7000A4E03B1D10933B683B4F04930023059363
:101F80003A4B9C46D3E040232B400AD00723073727
:101F90009F433B00083310933A687B680492059393
:101FA00004E03A1D10923A680593049280232B4076
:101FB00004D06B461B8A0493002304E0EA0503D592
:101FC0006A46127C04920593294F2B0700D574E0D2
:101FD00072E040232B400AD0072307379F433B0082
:101FE000083310933A687B680492059304E03A1D25
:101FF00010923A680593049280232B4004D06B46DC
:102000001B8A0493002304E0EA0503D56A46127C88
:10201000049205931023124A2B4000D185E0154B02
:102020001D40002381E06B060AD5072307379F4335
:102030003B00083310933A687B680C920D9305E0DF
:102040003B1D10933B680C93DB170D932B0613D5A8
:102050006B4630229B5E16E0983B00009F3B0000E1
:10206000E03B0000A73B0000A23B0000B83B0000A3
:10207000A53B0000FFFDFFFFEB0507D56B463022B7
:102080009B181B785BB20C93DB170D930D9B002BF9
:1020900008DA0C980D99002342428B41C44F0492F8
:1020A00005930AE00C9A0D9BC24F04920593AB076F
:1020B00003D4C14F6B0700D4C04F00239C46EB06EE
:1020C00035D5BF490D4032E010231D4202D11D43DA
:1020D000033B0E938022D2002A43EB0601D4062351
:1020E0000E932023072107372B408F43002B0DD061
:1020F000386879683B0008331093150000230022EC
:10210000449045910492059300230BE03900083177
:10211000109115003868796800224490459100219B
:10212000049105929C461F0001E09C4617000A9806
:102130000B99069B41973093DB173193309A319B73
:10214000801A994101225242089009914292439289
:10215000552000220E9B409346A950540132202A5C
:10216000FAD18222D200154201D101224092672E7B
:1021700016DC652E00DBC6E0472E00D1C3E006DC8E
:10218000412E00D1BFE0452E00D0CCE0BBE0612E57
:1021900000D1B8E0642E12D0582E00D0C3E011E078
:1021A000702E0FD006DC692E09D0002207216F2E79
:1021B00021D0B8E0752E02D0782E03D0B3E00023F2
:1021C00011932EE000220F210498059B0E921843D4
:1021D00000D1AAE06346049808401E5C059B46A80F
:1021E0001F07049B16541E09059B374318090497C3
:1021F00005900132E8E7049B05980E92034300D155
:1022000093E0049B46A80B4030331354059B0132E6
:102210005E07049BD808059B0643DB0804960593DC
:10222000E9E7119B059A0E93049B134300D17CE0D0
:10223000049E059F059B049ADB0752081A43059BE1
:102240001E925B081F93049A059B92089B071A43F2
:10225000059B20929B082193209821991E9A1F9BF1
:1022600012184B41190710090843190916901791C4
:102270001698179912184B411906100A0843190AA3
:10228000189019911898199912184B411904100CAB
:102290000843190C1A901B911A981B9912184B415C
:1022A0000021249325912498259912184B41590710
:1022B000DB081393D0080023062208431290B618B7
:1022C0005F41129813990A22002301F099FA361AF5
:1022D0008F41129813993B0732091A433B091C920C
:1022E0001D931C9A1D9B801859410A224243049B4E
:1022F000119E30339B1A46AAB35433000133119315
:10230000049005918DE743AB039342AB029340AB3E
:10231000019341AB009330002B0046AA44A9569E7E
:10232000B0470E9001E000230E938023DB002B408A
:1023300023930DD000234093429B002B01DD013BF2
:102340004093439B002B09DD409A013BD31804E0E6
:10235000409B0E9A9B1A00D5239B40930E9B409A5C
:1023600041989E1800F04AFA229B00279E1B331AC0
:10237000119301232B402293124B1D4214D10026AE
:10238000002707E0099BBB4221DC1DD0012200236E
:10239000B6185F41119B013B9A1BF3D5119AD743A5
:1023A000FF171740DB1B11930022002332E0C046C9
:1023B000813B00004F3B0000513B0000E03B000030
:1023C000FFFDFFFF01020000089BB342DED9A368B6
:1023D000013BA360002B05DB23685A1C22602022EE
:1023E0001A70D3E72100202000F058FACEE7FB173F
:1023F0003297339314981599329A339B12184B41A4
:102400000999994215DC11D0149A159B01200021DD
:1024100012184B4114921593149BFE18419B5A1CA1
:1024200041921B789C46002BE1D112E00899914221
:10243000EAD9A368013BA360002B05DB23685A1C83
:10244000226062461A70DFE72100604600F026FA3B
:10245000DAE7229B002B38D13027AB0500D4103FA0
:102460000022002314921593119B149A013B9A1A8F
:1024700024D414981599F31734963593349A359BD0
:1024800012184B410999994203DC10D108999142E5
:102490000DD9A368013BA360002B04DB23685A1C01
:1024A00022601F7003E02100380000F0F7F9149A51
:1024B000159B0120002112184B41D3E7119AD043FC
:1024C000C01710401B1A36181193239B002B02D102
:1024D000002200239AE000270E9BBB4200DCE8E0CC
:1024E00046ABF85C3C2804D03E2863D10022002390
:1024F00043E00022002314921593149BF518429B8D
:10250000013B4293002B6BDB14981599F317369619
:102510003793369A379B12184B410999994203DC3D
:1025200011D1089991420ED9A368013BA360002BF9
:1025300005DB23685A1C226030221A7003E0210058
:10254000302000F0ABF9149A159B012000211218DD
:102550004B41D0E7F3173896399314981599389A68
:10256000399B12184B410999994213DC0FD0149AE8
:10257000159B0120002112184B4114921593149BB6
:10258000F518439B013B4393002BE3DA28E00899BD
:102590009142ECD9A368013BA360002B05DB2368C3
:1025A0005A1C226030221A70E1E72100302000F02E
:1025B00075F9DCE7099A751CF3179A4203DC0FD111
:1025C000089BB3420CD9A368013BA360002B04DB3A
:1025D00023685A1C2260187002E0210000F05EF9A6
:1025E00001372E0078E7F3173A963B931498159924
:1025F0003A9A3B9B12184B410999994213DC0FD030
:10260000149A159B0120002112184B411492159326
:10261000149BF518409B013B4093002BE3DA12E03A
:1026200008999142ECD9A368013BA360002B05DB1C
:1026300023685A1C226030221A70E1E72100302002
:1026400000F02CF9DCE7002600270E9A3300921BDD
:10265000002A29DDEA173D923C953C983D99801966
:102660007941099A8A4203DC19D1089A824216D923
:10267000A2680E99013AA260CB1A002A08DB2268F0
:10268000511C21604EA9CB18213B1B78137006E02A
:102690004EAAD318213B1878210000F0FFF8012240
:1026A0000023B6185F41D0E70E9BDE43F6171E40AD
:1026B0007619229B002B32D0002200230E920F931A
:1026C0000E9B119ADB43D34225D40E980F99F31732
:1026D0003E963F933E9A3F9B12184B41099999426F
:1026E00003DC11D1089991420ED9A368013BA36084
:1026F000002B05DB23685A1C226020221A7003E09D
:102700002100202000F0CAF80E9A0F9B0120002122
:1027100012184B41D2E7D043C01710403618069B21
:102720009B190693109F069D0695079BFFF76DF971
:102730000A2041431E7851180133FFF7BFF90E9963
:102740001E78414352180E920133FFF7D6F90698CE
:102750004FB0F0BDF0B5C6680124B5071AD080258A
:10276000AD00AA420BD08025ED00AA4204D08025FE
:102770006D00AA420ED102E0416A230004E0064F38
:102780005D1E0124BD4205D8002432430161016071
:10279000C361C2602000F0BDFEFFFF00020010B563
:1027A0001378002B01D00132FAE7CC5CD45401330A
:1027B000002CFAD110BDFFFF03000B4330B59B077F
:1027C00011D103000B4D0A680B4C141994432C4291
:1027D00002D104C30431F6E7D1B2197001330029E4
:1027E00007D01212F8E70023CA5CC2540133002A52
:1027F000FAD130BD80808080FFFEFEFE032210B53E
:10280000431C104206D00130411E09780029F8D13E
:10281000C01A18E00C4C02680C495118914321422F
:1028200001D10430F7E7D4B2411C002C0AD0FF24B8
:102830002402811C224205D0FF242404C11C224210
:1028400000D0011DC81A10BD80808080FFFEFEFEF2
:1028500010B501F002F810BD202310B50400C268C5
:102860009A43436AE2605B6882699A420DD000F045
:10287000F7F8E268074B134010221343626AE360E3
:102880005368A361236993602360E268024B13409D
:10289000E36010BDEFCFFFFFBFBFFFFFF8B5CA6811
:1028A0004F4B060013400C00CB60930602D5080086
:1028B000FFF7D2FFA168E3684A1C0EDA9A050CD430
:1028C00002225242521AA260902252021343E36043
:1028D00023685A1C22601E707FE0424A1D001A4085
:1028E000022A05D00022A26080321343E36054E044
:1028F0003D490B40802109028B420AD10021200072
:1029000000F062FAE3689B0602D52000FFF7A4FFFF
:10291000E5689023F0225B022B431201E36015422D
:102920001ED1606900F0C0FF00280BD06B0509D5EF
:10293000636A236123600123E36192235B022B43DB
:10294000E3600DE080277F01380000F0DBF994237D
:10295000E2685B022B431A4320612060E761E2607A
:1029600090210901226825690B4219D0636A996890
:102970008A4200D91100491B09D1636A6A1C9A6016
:102980002260E269511EA160DA602E7025E022000B
:10299000280000F003F90028EFD0012040421DE09C
:1029A000511C21601670626A21689068884200D9C3
:1029B0000100E769491BD7605B0504D4F0B20A281F
:1029C00001D0B9420ADB0023956028002560A3608E
:1029D000220000F0E3F80028DFD1F0B2F8BDC046D5
:1029E000FFFFF7FF8A10000010A00000F7B50D00F0
:1029F00001901000140000F095F92B78722B09D08B
:102A0000772B04D0612B25D10823144A04E004233A
:102A1000022201E0002301220220691C03278446D0
:102A20000426012508782B2805D0622807D13243D7
:102A30002B430131F6E760463A430343F9E7E2608E
:102A4000019A62611B0706D502220021200000F0D6
:102A5000BBF900E000242000FEBDC046028000005B
:102A600070B50400436A056901689A68C068134B31
:102A70000340E36082230340022B02D00120404246
:102A80001AE080235B02184016D0914200D2110058
:102A90008D4209D10020636AE2689D60084B256081
:102AA0001340A060E36007E0491B2200280000F00B
:102AB00075F80028EED0E1E770BDC046FFFFF7FFD4
:102AC000FFFFFEFFF7B500230092002204000D0077
:102AD00000F0F2FD002805D00023009A00201360CA
:102AE000002126E06B00144A5B0D200029009F188E
:102AF000002B17D122002B031B0B802636031E4010
:102B000001965B00D60F3343019E1B031B0B520043
:102B1000002E05D02C0D24051C432100100001E0DF
:102B2000013FEAE7009B054A1F60054B0B401A4333
:102B3000110003B0F0BDC04602FCFFFF0000E03F03
:102B4000FFFF0F8070B500231600002204000D0067
:102B500000F0B2FD002802D00020002115E06A003C
:102B6000520D0A4B921920009A4206DD2222084B90
:102B70001A60084B1868596807E0002AECDD064B1C
:102B8000520552082B401343190070BDFE07000088
:102B900058010010E83B0000FFFF0F80F7B5D66832
:102BA00001900D0014005769F30205D51023380079
:102BB0001E4300F073FEA061114B1E4209D0A169B3
:102BC000380000F07DFE8023002811DB0D4B1E40F5
:102BD000E6602A000199380000F07EFE43005B08A1
:102BE000ED1AA3695D190023A561984205D08033D1
:102BF000E2681343E36001235B421800FEBDC04658
:102C000010000200EFFFFDFFF7B5314EC51C346820
:102C1000AD080196002813D080222900EB1C002764
:102C200052050A319C4604E02368934213D02700E2
:102C3000A468002CF8D10C3000F076F9431C0FD1B9
:102C4000002043E03E68964217D17E689B1903330B
:102C50006360BB68A360A7686368002FF2D10CE0D3
:102C600080239B05036045608460002F02D1019B97
:102C7000186000E0B8600C3028E09D4205DC634538
:102C800003DC80239B0523601EE08B4210D9802249
:102C9000200080219205656022600C30AA005D1B37
:102CA00082184905033DA2601160556097600DE0F0
:102CB000002FBCD19B00C01A00F036F9431CBFD0D6
:102CC00080239B05236065602000D4E7FEBDC046DD
:102CD0005C01001010B5002812D080235B0519009C
:102CE0000C3803608268002A0AD013688B4207D12F
:102CF000546843681B190333436093688360F1E7AA
:102D000010BDFFFF10B5FFF77FFF041E05D117228E
:102D1000034900F0E1FD00F0B5FD200010BDC04604
:102D2000C93B0000F0B5436AC5688BB0040001934D
:102D3000AB0728D02B0718D44769066900F02AF89A
:102D4000380000F0A5FD2B0502D53000FFF7C2FFCB
:102D50000F4BAD0DAD059D4207D12022216A02A87F
:102D600000F0B4FD02A800F0D5F818220021606A36
:102D7000FFF76EFD282200212000FFF769FD019B6F
:102D80000020636201E0012040420BB0F0BDC0466C
:102D9000000080AD70B5002803D000F0E5F8050014
:102DA0000EE0A0260400050076000648201800F07A
:102DB000DBF8002801D001256D422834B442F4D15B
:102DC000280070BD18000010F7B5C3681600009306
:102DD000009A3B4B04000D001A426CD04769380042
:102DE00000F062FD0190002865D1012E04D0022E72
:102DF00007D0002E5FD124E0200000F065F82D18E8
:102E00001FE0380000F04AFD002805DA8023E26860
:102E10001343E36001234FE0626A2368916899429B
:102E200000D90B00A1695B1821695B1AE16889066A
:102E300003D55268934200DA1300834200DA03009C
:102E4000ED18002D37DB009B616A9B0404D52368D5
:102E50008A689A4200D28B60A3699D420DDB886824
:102E60002268824200D202002069D618361AB54282
:102E700003DCCF68DE19B54207DB2023009A134339
:102E80000022A26062604D6011E0ED1A009B9B077A
:102E900001D5EF1BA760009BDB0702D5121AAA1A07
:102EA00062602023009A45199A4313002560054A61
:102EB0001340E36001E0022301930198FEBDC04688
:102EC00003001000BFCFF7FFC3689A0705D1212286
:102ED00001200F4B40421A6018E0202219030BD545
:102EE000134202D0436A586804E0036882690069AB
:102EF0009B18181A013809E0134202D0436A586837
:102F000004E00368826900699B18181A7047C0467C
:102F10005801001010B50400FFF770FC01002000FC
:102F200000F0C8FC10BDFFFF70B50C4D2B68002BE6
:102F300001D10B4B2B600323C41C2E689C43341916
:102F4000200000F035F8002802D12C60300004E0A9
:102F50000C220120034B40421A6070BD600100103A
:102F60008801001058010010C36870B504000320E8
:102F700018401AD09B0605D5636A20005E68FFF7EB
:102F80006BFC04E02368A2699E182369F61AE268C4
:102F9000064B20001340E360FFF762FD05000022AE
:102FA00031002000FFF710FF280070BDFFCFFFFFAA
:102FB000034B0200181E02D000209A424041704785
:102FC0000000000003000B4321D4002931D001226E
:102FD000D207030901E0090112099942FBD943080C
:102FE00001E0490052089942FBD900E04908401A23
:102FF00007D35241FAD3014610467047490840189A
:10300000F7D29218FAD34018014610467047CB0FFA
:1030100000D04942021000D54042534008B5FFF7A6
:10302000D4FF0CBC521000D34042002A00D54942C4
:103030001847F446002000F001F860477047FFFF92
:10304000F0B516001A004C0089B00700640D4A4024
:10305000002C00D17EE0504DAC427BD05800400D9A
:1030600078D0A84276D020188024D20FD2070192BF
:103070008025720DDB02134324061C430023090341
:10308000090B6D030D43220006901900280000F083
:10309000B7FB0023F60202900391320028001900CA
:1030A00000F0AEFB002305003A0007912000190054
:1030B00000F0A6FB0023049005913A0030001900AF
:1030C00000F09EFB0B00002184461C00049A059B27
:1030D00028000D0024184D41A4185D410F000B007D
:1030E000029803992A00079E92197B4112184B41BE
:1030F00061468808044306992848091828489842D8
:103100000CD316001F00B6185F4126483B008446CA
:10311000E00F304302000699640061440027E60F87
:1031200092197B41802015000006844201D10120C4
:1031300085431D48814205D8019818430B05C118E5
:10314000280027E0019B002902DB184B019A13435A
:1031500000201EE01648D20FD2074900814205D850
:103160005C00844205D80020110013E01148814220
:1031700003D110485B00834201D9002005E0490DCE
:103180000020002901D05B0D01D10B4902E0074B63
:103190001343190009B0F0BDFF07000001FCFFFF59
:1031A000FFFF0F0000FCFFFFFD0700000000F07FA5
:1031B000FFFFDFFF0000E0FF0000F87FF7B54F00E2
:1031C0007D0D64D0494CA446A54260D05F007C0DC3
:1031D0005DD064455BD02F1B1C004C400194C9029C
:1031E000440D214380242406A446C40260460843BB
:1031F00061460500DB02500D03430B43D202AB4294
:1032000002D803D1A24201D9394908E0E9078C4626
:10321000664660080643340069080D0035495008C9
:103220007F18D90708433522590800235B00A942BB
:1032300006D801D1A04203D80126241A8D41334378
:1032400024196D41561E212A02D100933200EDE768
:10325000321EEBD1A94208D801D1A04205D80133D2
:103260005A425A4100998A180092019A2249D20F73
:10327000D2078F4205D83F05009CBA1811191800D3
:1032800032E01300002F2ADB1C4B134327E01C4DB8
:103290004C00AC4226D85800A84223D81A000A4352
:1032A0005200520D520501D1164906E04B40DB0F8A
:1032B000620DDB07520502D11900100014E0420D27
:1032C000520503D10D4C1C432100F6E7A84204D05F
:1032D0000A4A00201A43110006E0844202D000206E
:1032E000190001E00020074903B0F0BDFF0700000E
:1032F000FD030000FE030000FD0700000000F07F5A
:103300000000E0FF0000F87FF8B594460E001F00B3
:103310000D001A0004006146734007D5802424067E
:103320003B196246310000F0D3F8C8E0BE4203D337
:1033300060450DD8BE420BD1802212069A18634612
:1033400061465840414035004840040055407A40AD
:103350005B4B5C482F0D160DBE1B3B40834200D1DA
:10336000A0E09E4200D19AE080202B03120340038C
:103370001B0B120B034302431F2E51D81000F040C9
:1033800020251B1A0800F040AE1BB2400243A51ACC
:10339000AC42A4410A0064421B1BB2402C00002A2C
:1033A00005D0013C611C4842414152425B1AC02198
:1033B00049030B4252D1E10F5B00D20F0B43640073
:1033C00014431A00224301D0BA1E02E0110010007B
:1033D00075E0590B05D1210E1B020B432402083A5C
:1033E000F7E7590C04D1210F1B010B432401043AC8
:1033F000D90C04D1A10F9B000B43A400023A190D74
:1034000004D1E10F5B000B436400013AFF0AD10ACB
:103410008F4202D11205D11850E00020F9074EE08A
:10342000352E1BD81500203EF540651BAC42A4414B
:10343000202064421B1B0C00801B8240F4400906C4
:103440002243002902D0FF210A4302E02C00002A77
:1034500004D06C1E6942694152425B1AD9020DD4F4
:10346000013F7D0507D0E10FD00F5B0064000B43E7
:103470000443520002E03905280020E012493F05CC
:103480000B40002A09DA0134614261415B18802156
:1034900009068A4201D101229443F9180EE0311E37
:1034A00009D00AE02B030020002B01D0074906E0D9
:1034B000002E02D10549300001E029002000F8BDAE
:1034C000FFF7FFFFFF070000FFFFEFFF0000F87F9F
:1034D0009446F8B51A001D000E00040067464B40E4
:1034E00006D5802424062B196246FFF70DFF7DE0E8
:1034F000A94208D2784067464740594078406B401F
:103500000E001A0004003A4B3A48310D0B4083423A
:1035100064D0150D4D1B9D425AD0802033031203F9
:1035200040031B0B120B034302431F2D10D8100046
:10353000E84020261B183800E840751BAA400243CB
:10354000A4189442924152429B183A00AA4014E0B7
:10355000352D12D81000203DE840241884428041C7
:1035600040421B182020401B82403800E8403F06A4
:103570000243002F01D0FF200243980218D50134E6
:10358000604260411B18002A01D10232944358085E
:103590000A05121818485500854205D86408DB074B
:1035A00023431100180021E04B1C002019051DE0E9
:1035B0000139002A09DA0134604260411B18802079
:1035C0000006824201D1012294430A05D1180CE081
:1035D000002D09D1F60FF107280007E03303002082
:1035E000002B01D0054901E031002000F8BDC046A4
:1035F000FFF7FFFFFF070000FFFFDFFF0000F87F7E
:10360000CB02400D184380231B0618430A4B0A0DBA
:103610009B1AD840FF2B0ED9E022D2004042134221
:1036200009D000204B0006D5044A4B00934202D833
:10363000034BC80FC01870471E0400000000E0FFD5
:10364000FFFFFF7F10B5002802D10300020025E034
:10365000030C01D1000402E080235B04C918030EAF
:1036600001D1000202E080231B04C918030F01D11D
:10367000000102E08023DB03C918830F01D1800021
:1036800002E080239B03C918002801DB400002E010
:1036900080235B03C918C412631842051000190087
:1036A00010BDC10F10B5C90700D040428023DB0513
:1036B000C918FFF7C7FF10BDF0B50F00490005009E
:1036C0001E001400084304D15B001A430130002A95
:1036D00007D00020B74204D1A54202D1014B8B4252
:1036E0004041F0BD0000E0FFF0B51C000E001D00E1
:1036F0000C43134F0CD45B000024BB421ED8013492
:10370000A9421BD3002490428041A94216D114E063
:1037100049000024B94211D85B00BB420ED80143D6
:10372000A14202D11343A34208D00124AE4205D8DE
:103730000024AE4202D18242804144422000F0BDCA
:103740000000E0FFF7B51C000E001D0001920C43C5
:10375000124F0DD45B000024BB421DD80134A94296
:103760001AD30024A94217D113008342644113E005
:1037700049000024B9420FD85B00BB420CD8013489
:10378000AE4209D801D1904206D200240143A142A1
:1037900002D113435C425C412000FEBD0000E0FF0B
:1037A000F7B5040018000843009014480E00844642
:1037B00000981D000192490000280BDB00206145A4
:1037C0001BD801309E4218D800209E4215D1944249
:1037D000404112E0002061450FD85B0063450CD8E2
:1037E0000130AE4209D301D1944206D900202143D1
:1037F000814202D1134358425841FEBD0000E0FF10
:1038000010B543435143C918040C130C5C43091908
:1038100092B2040C544380B2434350432204240C1C
:10382000801861411A041B0C8018594110BD844650
:10383000830708D18B0706D1131F04D304C904C022
:10384000043BFBD21A1D524205D0891A801A8B5CA8
:1038500083540132FBD1604670478446043A09D351
:10386000830707D109060B0A19430B0C1943043AC5
:1038700002C0FCD2043203D001700130013AFBD106
:103880006046704718200149ABBE70472600020011
:1038900003B469460220ABBE02B0704703B4694668
:1038A0000C20ABBE02B0704703B469460920ABBE22
:1038B00002B0704703B469460E20ABBE02B0704739
:1038C00003B469460A20ABBE02B070470FB4694624
:1038D0000D20ABBE04B070470FB469460520ABBEE7
:1038E00004B0704730780000300000004A756D70F9
:1038F000696E6720746F206170706C6963617469B0
:103900006F6E210A0D000000506172742049443A24
:10391000200000000A0D0000070C1116070C1116FC
:10392000070C1116070C1116070C1116070C1116AF
:10393000070C1116070C1116040B1017040B1017A7
:10394000040B1017040B1017060A0F15060A0F15A3
:10395000060A0F15060A0F1578A46AD756B7C7E8E6
:10396000DB702024EECEBDC1AF0F7CF52AC68747A1
:10397000134630A8019546FDD8988069AFF7448B6F
:10398000B15BFFFFBED75C892211906B937198FDEC
:103990008E4379A62108B44962251EF640B340C083
:1039A000515A5E26AAC7B6E95D102FD653144402B9
:1039B00081E6A1D8C8FBD3E7E6CDE121D60737C31E
:1039C000870DD5F4ED145A4505E9E3A9F8A3EFFCFA
:1039D000D9026F678A4C2A8D4239FAFF81F67187C6
:1039E00022619D6D0C38E5FD44EABEA4A9CFDE4BF3
:1039F000604BBBF670BCBFBEC67E9B28FA27A1EA0F
:103A00008530EFD4051D880439D0D4D9E599DBE69B
:103A1000F87CA21F6556ACC4442229F497FF2A43C0
:103A2000A72394AB39A093FCC3595B6592CC0C8F50
:103A30007DF4EFFFD15D84854F7EA86FE0E62CFE1C
:103A4000144301A3A111084E827E53F735F23ABD0B
:103A5000BBD2D72A91D386EB4669727374626F6FBB
:103A60007420666C6167206368616E6765642061BD
:103A70006E642076657269666965643A20000000AC
:103A80004669727374626F6F7420666C616720633D
:103A900068616E6765206661696C65643A20000044
:103AA0004669727374626F6F7420666C616720730D
:103AB00065743A2000000000496D616765206C65FF
:103AC0006E67746820757064617465643A200000E4
:103AD000496D616765206C656E67746820757064F8
:103AE000617465204641494C45443A20000000007D
:103AF0004669727374626F6F7420666C6167206EC2
:103B00006F74207365742E20497320307830302E06
:103B10000A0D00005465737420636865636B7375E8
:103B20006D20666F722027486927210A0D0000006A
:103B30004C31554445563030314120626F6F746CC2
:103B40006F6164657220697320676F210A0D002B15
:103B500000200030782563702564003058256350BC
:103B6000256400307825632E252E2A6C6C7870250C
:103B70006400305825632E252E2A6C6C585025641D
:103B8000002D00720077003031323334353637384B
:103B90003961626364656600286E756C6C2900305B
:103BA0005800307800300030313233343536373811
:103BB000394142434445460030313233343536379B
:103BC0003839616263646566002A2A2A205F43737C
:103BD00079735F616C6C6F63206661696C65640A00
:103BE00000FFFFFFFFFFFFFFFFFFFFFFFFFFEF7F74
:103BF0000123456789ABCDEFFEDCBA9876543210CD
:043C0000F11FFF1F92
:040000030000015D9B
:00000001FF
