:10000000002000105D010000F1010000F901000076
:1000100000000000000000000000000000000000E0
:1000200000000000000000000000000001020000CD
:1000300000000000000000000902000011020000A2
:100040001902000019020000190200001902000044
:100050001902000019020000190200001902000034
:10006000190200001902000000000000000000005A
:10007000000000000000000019020000190200004A
:100080001902000019020000190200001902000004
:1000900019020000190200001902000019020000F4
:1000A00019020000190200001902000019020000E4
:1000B0000000000000000000190200000000000025
:1000C000303A00000000001004000000303A000048
:1000D0000040002000000000040000107401000037
:1000E000004000200000000080B588B000AFF8603C
:1000F000B9607A60BB68FB61FB68BB6100237B6110
:100100000AE0FB691A1DFA61BA69111DB96112682A
:100110001A607B6904337B617A697B689A42F0D309
:10012000BD4608B080BDC04680B584B000AF7860E1
:1001300039607B68FB600023BB6007E0FB681A1D29
:10014000FA6000221A60BB680433BB60BA683B687F
:100150009A42F3D3BD4604B080BDC04680B586B098
:1001600000AF1F4B3B613B691B68C02212051A435D
:100170003B691A601B4B7B6116E07B691A1D7A6133
:100180001B68FB607B691A1D7A611B68BB607B6919
:100190001A1D7A611B687B60F968BA687B68081C65
:1001A000111C1A1CFFF7A0FF7A690F4B9A42E4D387
:1001B0000FE07B691A1D7A611B68BB607B691A1DA1
:1001C0007A611B687B60BA687B68101C191CFFF79A
:1001D000ABFF7A69054B9A42EBD300F017FDFEE7BF
:1001E00080800440C0000000D8000000E80000004B
:1001F00080B500AFFEE7C04680B500AFFEE7C04661
:1002000080B500AFFEE7C04680B500AFFEE7C04650
:1002100080B500AFFEE7C04680B500AFFEE7C04640
:10022000F0B58DB000AFF8616B461E1CFB69181C61
:1002300002F0E8F9031C5A1EFA621A1C3A61002205
:100240007A6138697969021C520F38617961C90095
:1002500079607968114379603A69D2003A601A1C72
:10026000BA600022FA60B868F968021C520FB860E0
:10027000F960CD001543BA68D4000733DB08DB0012
:100280006A46D31A9D466B460033BB62BA6AFB6965
:10029000101C191C02F094F9BB6A7B627B6A181C63
:1002A00002F0B0F9031C013B7A6AD3181B780A2BC1
:1002B0000AD07B6A181C02F0A5F9031C013B7A6A7C
:1002C000D3181B780D2B09D17B6A181C02F09AF900
:1002D000031C013B7A6AD31800221A70BB6A181CEF
:1002E00001F0E8F9C046B546BD460DB0F0BDC046C8
:1002F00080B58EB000AF786039607A680C23FB1847
:10030000101C191C102201F051FA2023FA18174B67
:10031000101C191C02F054F90C23FB18181C02F0D5
:1003200071F9031C7B633A687B6BD31A7B6309E02A
:100330002023FA180E4B101C191C02F033F97B6BAA
:10034000013B7B637B6B002BF2DC2023FA180C2330
:10035000FB18101C191C02F025F92023FB18181C8F
:10036000FFF75EFFC046BD460EB080BDE836000018
:10037000EC36000080B500AF064B181CFFF750FFAD
:10038000054800688546054800688746C046BD4662
:1003900080BDC046F036000000410000044100006E
:1003A00080B500AF0023181CBD4680BD80B500AFEE
:1003B0000023181CBD4680BD80B582B000AF00F0A0
:1003C00007FC031C7B60114B181CFFF729FF7B689F
:1003D000181C0821FFF78CFF0D4B181CFFF720FF9E
:1003E0007B680C4A934205D00B4A934205D12323E4
:1003F0007B6005E023237B6002E000237B60C04636
:100400007B68181CBD4602B080BDC0460C3700009A
:100410001837000040BC000040BC010080B586B029
:1004200000AFF860B960FB1D1A701723FB18FA1DA6
:1004300012781A70324B181CFFF7F2FEFB68181C7A
:100440000821FFF755FF2F4B181CFFF7E9FE35E099
:10045000FB6819781723FB181722BA1812784A403C
:100460001A701723FB181B789B09DAB21723FB18A5
:100470001B78DB09DBB25340D9B21723FB181722D4
:10048000BA1812784A401A701723FB181B785B00C1
:10049000DAB21723FB181B789B00DBB25340DAB2A9
:1004A0001723FB181B785340DAB21723FB181A7076
:1004B000FB680133FB60BB68013BBB60BB68002B82
:1004C000C6D1114B181CFFF7ABFEFB68181C0821A6
:1004D000FFF70EFF0D4B181CFFF7A2FE1723FB18AA
:1004E0001B78181C0221FFF703FF064B181CFFF7AF
:1004F00097FE1723FB181B78181CBD4606B080BD5D
:100500001C37000018370000303700005437000057
:10051000B0B582B000AF314B181C00F001FA031CDB
:100520003B60DB177B603B681B0E7A68120213434B
:100530007B603B681B023B60294B181C00F0F0F904
:10054000021CFF2313401C1CDB171D1C3B682343AC
:100550003B607B682B437B603B681B041B0C3B6050
:100560007B68002213407B603B687C680121494224
:10057000CA175B1854413B607C601A4B181CFFF78C
:100580004FFE3B68181C0421FFF7B2FE164B181CE7
:10059000FFF746FE3B681B0E7A68120213437B602E
:1005A0003B681B023B60114B181CFFF739FE3B6890
:1005B000181C0421FFF79CFE0D4B181CFFF730FEA2
:1005C0003A688223DB01181C111CFF22FFF726FF6B
:1005D000031C181CBD4602B0B0BDC0460D40000053
:1005E0000C400000683700008C370000983700008E
:1005F000C037000080B500AFFFF78AFF031C191C4D
:10060000044A054B101C1A1C00F040FA0123181C68
:10061000BD4680BD08400000E02E000080B582B0DD
:1006200000AF01237B601A4A1A4B101C00211A1CD0
:1006300000F02CFA031C7B607B68002B12D1164B58
:10064000181CFFF7EDFD124B181C00F069F9031C94
:10065000181C0221FFF74CFE104B181CFFF7E0FDA1
:10066000012311E00E4B181CFFF7DAFD084B181C94
:1006700000F056F9031C181C0221FFF739FE074B46
:10068000181CFFF7CDFD0023181CBD4602B080BD2D
:100690000A400000E02E0000CC37000018370000B0
:1006A000F437000090B585B000AF0023FB607A4BB3
:1006B000181C00F035F9031E00D1B3E0774B181C6D
:1006C000FFF7AEFD744B181C00F02AF9031C181C30
:1006D0000221FFF70DFE724B181CFFF7A1FDC0238E
:1006E000BB60BB681A12FB1D1A706E4B181CFFF71B
:1006F00097FDBB68181C0421FFF7FAFD6A4B181C14
:10070000FFF78EFDFB1D1B78181C0221FFF7F0FD83
:10071000634B181CFFF784FD644B181CFFF780FD2A
:10072000634B181C00F0FCF8031C1C02614B181CE6
:1007300000F0F6F8021CFF231340E318181C0421F4
:10074000FFF7D6FD564B181CFFF76AFDFB1D1B7803
:100750005749594A081C191C00F098F9031E45D145
:10076000BB68FF2213405349534A081C191C00F070
:100770008DF9031E20D1514B181CFFF751FD4C4B36
:10078000181C00F0CDF8031C1C024A4B181C00F08A
:10079000C7F8021CFF231340E318181C0421FFF7BD
:1007A000A7FD3F4B181CFFF73BFDFFF723FFFFF7AB
:1007B00035FF031E35D133E0414B181CFFF730FDE8
:1007C0003B4B181C00F0ACF8031C1C02394B181CE6
:1007D00000F0A6F8031CE318181C0421FFF788FD9D
:1007E0002F4B181CFFF71CFD002351E0354B181C44
:1007F000FFF716FD2E4B181C00F092F8031C1C028C
:100800002C4B181C00F08CF8031CE318181C042156
:10081000FFF76EFD224B181CFFF702FD002337E0A7
:10082000FEE703E0284B181CFFF7FAFCFFF7C4FDB6
:10083000031E232B2BD1254B181CFFF7F1FC244B57
:10084000181C00F06DF8031C181C0221FFF750FD66
:10085000134B181CFFF7E4FCFFF75AFE031CFB6068
:100860001C4B181CFFF7DCFCFB68181C0221FFF76F
:100870003FFD0B4B181CFFF7D3FC154B181C00F069
:100880004FF8154B181CFFF7CBFC012300E00123A8
:10089000181CBD4605B090BD0A4000001438000089
:1008A000183700002C380000443800005838000089
:1008B0000D4000000C400000E02E00007C380000DD
:1008C00094380000B8380000DC380000003900001F
:1008D000FF400000303900004439000080B500AF0F
:1008E0000D4B181CFFF79CFCFFF75AFD031E01D0AF
:1008F000FFF75CFDFFF7D6FE031E01D0FFF73AFDC0
:10090000FFF7D0FE031E01D0FFF734FD034B181C88
:10091000FFF786FCFEE7C04664390000843900001A
:1009200080B584B000AF78600F23FB1800221A70E6
:100930000F23FB187A6812781A700F23FB181B78A4
:10094000181CBD4604B080BD80B586B000AF78608D
:1009500000237B6180235B01FB6000233B6106E099
:100960003A69FB68D3183B617B6901337B613A6963
:100970007B689A42F4DB7B69181CBD4606B080BDDB
:1009800080B582B000AF78603960104B32221A60B7
:100990007A680E4B5A603A680C4B9A600C4B1B6895
:1009A0000A490C4A081C111C9847C046094B1B6891
:1009B0000B2BFBD0074B1B68002B01D1002300E061
:1009C0000123181CBD4602B080BDC04618000010AF
:1009D000000000100800001090B585B000AFF8606E
:1009E000B9607A603B607A6880235B009A4210D0DD
:1009F0007A6880239B009A420BD07A688023DB00C0
:100A00009A4206D07A6880235B019A4201D0012382
:100A100031E0FB68181CFFF797FF041CFA687B683D
:100A2000D318181CFFF790FF031C201C191CFFF79C
:100A3000A7FF134B33221A60FA68114B5A60BA6849
:100A40000F4B9A607A680E4BDA603A680C4B1A6169
:100A50000C4B1B680A490C4A081C111C9847C046DD
:100A6000094B1B680B2BFBD0074B1B68002B01D1DC
:100A7000002300E00123181CBD4605B090BDC04610
:100A800018000010000000100800001080B5C8B069
:100A900000AFF8607A604C4B902252009446BC4400
:100AA00063440A1C1A7080235B008A225200BA1821
:100AB000136000238E225200BA1813600CE08E23BC
:100AC0005B00FB181A688A235B00FB181B68D318AD
:100AD0008E225200BA1813608E235B00FB181A682E
:100AE000FB689A42EBDB8E235B00FB181A688A23B3
:100AF0005B00FB181B68D31A8E225200BA181360D1
:100B000000238C225200BA18136022E08E235B006F
:100B1000FB181A688C235B00FB181B68D318181C81
:100B2000FFF7FEFE031C191C284B90225200BA1836
:100B3000D2188C235B00FB181B68D3180A1C1A7090
:100B40008C235B00FB181B6801338C225200BA18FF
:100B500013608C235B00FB181B68FF2BD6DDFA6843
:100B60008E235B00FB181B68D31A184A902149009A
:100B70008C46BC4462441449902040008446BC44E6
:100B800061440978D1541423F9188E235B00FB18B3
:100B9000186880235A007B68FFF71EFFFB68181C4B
:100BA000FFF7BEFE031C1A1C074B902149008C4620
:100BB000BC4463441B78934201D1002300E001232D
:100BC000181CBD4648B080BDEBFEFFFFF4FEFFFFE2
:100BD00080B500AF0A4B36221A600A4B1B680849E1
:100BE000094A081C111C9847074B1B68002B02D1AF
:100BF000054B5B6800E00123181CBD4680BDC04664
:100C0000180000100000001008000010002008B5B7
:100C1000011C021C00F076FDFFF760FE08BD4118C4
:100C20000A78342A01DC00201CE00B1C352A06D18E
:100C300001331A78302AFBD0002AF4D00B1C013B78
:100C40001A78392A02D1093A1A70F8E701321A7073
:100C50000378302BE7D00B1A03D40B7801398B7053
:100C6000F9E70120704770B5051C0C1C8E1FB442BB
:100C70000CD0281C0A2102F0A7F80A235B42434348
:100C80003035ED18013C6570051CF0E770BD0000C3
:100C90000EB430B592B015AB10CB051C0021282244
:100CA00008A8079301F0D8FC0A2301220B93114BEB
:100CB00000940A93079B08A801930F4B524202939A
:100CC0000C4B089500F0A6FD0A9B041C0593013B04
:100CD0000A93002B03DB0023089A137003E0002023
:100CE00008A901F0DFFC201C12B030BC08BC03B026
:100CF0001847C046FFFFFF7FFD0C0000F0B54D68B0
:100D0000A1B004920E68D44A07932B0C08900B965E
:100D10000A951340934228D10023049A2D032D0BEA
:100D2000D3702E436E33002E18D1692204994B7074
:100D3000083B8B700A9B0A70002B01DAC74B08E056
:100D4000079AC74B920704D4079AC64B520700D4A0
:100D5000C54B269A0320136000F075FC049A049991
:100D6000137061228B704A70F2E72023089A0020EA
:100D70009A43412A00D14FE2301C291C0022002353
:100D800002F0C6FB002808D0802109066B181D1C44
:100D900001230B9A0C93161C00E00C90301C291CAC
:100DA0000022002302F09CFB002800D013E213AACB
:100DB000301C291C01F084FD149015912E20FA217D
:100DC000139CFF306043A94B8900C01801F0FCFF61
:100DD000A7490590021B002001F0B4FD059B1E9061
:100DE0001F91002B05DA5C42A24AA34B1A921B9377
:100DF00007E00022A14B1A921B93059B002B16D0F3
:100E00001C1CE30709D51A9A1B9B1E981F9902F018
:100E100019F81E901F91012C09D01A9A1B9B1A9841
:100E20001B9902F00FF864101A901B91E9E71498CF
:100E300015991E9A1F9B02F0C1F8169017911698EB
:100E4000179900228E4B02F063FB002813D01698EE
:100E5000179900228B4B01F0F5FF059B1690179117
:100E60001E981F99013B05930022864B02F0A6F8BD
:100E70001E901F91E3E7169817990022824B02F00B
:100E8000A5FB002813D01698179900227D4B02F07D
:100E900095F8059B169017911E981F99013305939D
:100EA0000022784B01F0CEFF1E901F91E3E71698C9
:100EB000179902F0B7FA059B059A06905B420D92CE
:100EC000002A00DA0D93069802F0FFFA059B139AA8
:100ED0009A1A01F037FD0022002316901791059908
:100EE0001892199300292DDA624863491A901B91D0
:100EF0001C921D931A9E1B9F1A981B9900261C9CDE
:100F00001D9D321C3B1C02F001F9021C0B1C201C15
:100F1000291C02F0E7F91C901D911A961B971A984C
:100F20001B990022554B01F08DFF021C0B1C002069
:100F30004F4902F0EBF80022504B02F03FF81C90B2
:100F40001D9109E000204D491A901B911C921D93A0
:100F5000059B002B00D199E00D9B0993099BDB07B2
:100F600043D5169817991C9A1D9B189C199D0E9491
:100F70000F951A9C1B9D1C9E1D9F01F063FF321C48
:100F8000109011913B1C201C291C02F0ABF9021C93
:100F90000B1C0E980F9901F055FF021C0B1C1098AA
:100FA000119902F09FF9189019911A9A1B9B1698A3
:100FB000179901F047FF16901791169E179F1698E4
:100FC00017990026189C199D321C3B1C02F09EF8B4
:100FD0000B1C021C291C201C02F084F9099B189090
:100FE000199116961797012B50D01A9A1B9B1C9C8F
:100FF0001D9D1C9E1D9F101C191C02F073F9221CC4
:101000002B1C02F06FF9021C0B1C301C391C01F068
:1010100019FF1C901D911A9A1B9B1A981B9901F09D
:1010200011FF1A901B911A9E1B9F1A981B9900265C
:101030001C9C1D9D321C3B1C02F068F80B1C021C02
:10104000291C201C02F04EF9099B1C901D915B107D
:101050001A961B9781E7C046F07F0000C639000052
:101060009439000096390000253A000084EAFFFF19
:101070000000F03F9A9999999999C93F000014404E
:10108000006AF8400000244080842E411698179989
:10109000149A159B02F06AFA002803D1069B013BC3
:1010A000069310E7169A179B1498159902F02EF8DC
:1010B00014901591189A199B1498159902F026F816
:1010C000149015911E9A1F9B1498159901F076FFA4
:1010D00014901591149815990022BC4B01F0B2FEA2
:1010E000149015911498159902F09CF9149E159F6F
:1010F000041C02F0EAF9021C0B1C301C391C02F023
:1011000005F80022B14B01F09DFE14901591149842
:10111000159902F087F9071C002F03DAAC4B013C4C
:10112000FF18F9E7AB4B9F4203DDAB4B0134FF18CF
:10113000F8E7002C05DAA64AA418069A013A0692A6
:10114000F7E79C4205DDA44AA418069A01320692EC
:10115000F7E7069DA14B9D4219DC201CA04901F038
:1011600033FE0A25069B061C6B439D491B18381C41
:10117000069301F029FE9B4B5E43A4196C43434345
:101180002418F8184543059B2F1C013B21E0914B87
:10119000069A9A4225DD101C0A210A2601F014FE47
:1011A00076424643AE198A4D06906E43A6190A212F
:1011B000301C01F009FE0A235B424343041CF01873
:1011C0004543781905300A2101F0FEFD071C059BF7
:1011D0000133059305E0002705233C1C5B42059382
:1011E00006973025049B0698991D1D70FFF73BFD5F
:1011F0000499201C0C31FFF736FD0499381C12317C
:10120000FFF731FD049B049ADD74002305981375E4
:1012100005300C9B80001843C30701D5724B08E0D2
:10122000079A724B920704D4079A714B520700D465
:10123000704B269A136001239843C417A40F089B90
:101240002418A410612B10D006DC452B6DD0472B41
:1012500049D0412B45D108E0089B662B00D112E113
:10126000672B40D0652B3CD15FE00A9B18035A00E6
:10127000000B520D02D0604BD31805E00B9B0343CB
:1012800001D1131C00E05C4B27990C68002C0FD196
:10129000079909070CD408985849612800D0584983
:1012A00055426A413120821A0498FFF7F1FC10E0A0
:1012B000089D5449612D00D0534955426A4131255A
:1012C000AA1A0B9D0190029300950498231CFFF726
:1012D000DFFC0A9A474B002A00DA434B269A136038
:1012E000B1E1672308938023079A1B011A43279BC8
:1012F00007921B680593002B02DC0123279A1360D9
:10130000279B12211B68112B00DC591C0498FFF746
:1013100086FC279B24181B689C4200DAACE0279AC5
:10132000013B1360089B023B0893279B1B68112B12
:1013300005DD299A113B13601123279A136080263B
:10134000279B36011B6805939D1C079B1E4004D1FB
:101350000498291CFFF763FC2418049B049A5B780B
:101360001370279B1B68002B03D1284B079A1A4246
:1013700003D02E23049A537000E00125299B1B689B
:10138000002B03DD3E23049A53550135002E0ED069
:10139000079B1B070BD4049A6B1ED25C302A01D129
:1013A0001D1CF8E73E2AFBD02E2A00D11D1C6946E1
:1013B00020200918049A09786B1C51550235002C1D
:1013C00026DA64422E1C2D2224E0C04680842E4161
:1013D00040420F003F420F00C0BDF0FF9F8601005A
:1013E000A08601006079FEFFC63900009439000034
:1013F00096390000253A000001FCFFFF98390000F3
:10140000A0390000A8390000B73900000808000022
:101410002E1C2B220499CA548C4B9C420CDDFA21C1
:10142000201C890001F0D0FC031C049A3033535572
:10143000874B6E1C58432418632C0CDD201C642140
:1014400001F0C2FC031C049A3033935564235B42C1
:10145000584301362418201C0A2101F0B5FC031C56
:10146000049A303393550A235B4258433034201892
:1014700092195070B01CE6E0221D00DA4FE7E243FB
:101480009B18279A1360279B1E6880231B01002C42
:1014900053DA6742721C97420CDD3023049A02250E
:1014A0001370023B5370279B1B680593059A299B79
:1014B0001A603DE03619B51C122D03DD1325299A5B
:1014C000113E1660079A1A4210D10498291CFFF7A2
:1014D000A6FB00280AD0E7430135002F06D1049B64
:1014E0005B78049A13702E23537021E0049B5B19E0
:1014F000012F0AD1049A9A1A002A03DD1A78013BB7
:101500009A70F7E701353023EBE7049A9A1A002A1C
:1015100003DD1A78013BDA70F7E73023049A013FC4
:101520001370023B53700E339370289B02351F607B
:10153000299B1B68002B28DC64E0A619B51C122D22
:1015400047DD079A13251A4207D10498291CFFF793
:1015500066FB002801D0013401356A1E049B9442C9
:1015600018DA5A781A70049A01339A1AA242F8DDEE
:101570002E22049B1B195A70279B1B68E4180593A5
:10158000299B113C1C60002C3CD03E23049A5355EF
:10159000013537E05978197004990133591A91428D
:1015A000F8DB3C22049B641B5B19013B1A70049915
:1015B000289B0E3A02341C604A55279A6B1C12680D
:1015C000002A1ED0299902350A603E220499CA5485
:1015D00018E0079A1A4207D10498291CFFF71FFB4D
:1015E000002801D00134F51C049B5A781A70049A23
:1015F00001339A1AA242F8DD049B1C192E23637052
:1016000000E01D1C079B1B0511D5079B281C1B0711
:1016100019D4049A6B1ED25C302A01D11D1CF8E744
:101620003E2AFBD0281C2E2A0DD1181C0BE0279B2C
:10163000281C1B68002B06D1079A08331A40131C7C
:101640005A425341E81A21B0F0BDC046E7030000FA
:1016500018FCFFFFF0B50C1C91B0071C161C0021F4
:10166000282206A81D1C00F0F7FF0A23621E002492
:1016700009930E4B019508930D4B0096029306A813
:10168000231C069700F0C6F8089B051C0593013B38
:101690000893A34202DB069B1C7003E0201C06A9F2
:1016A00001F000F8281C11B0F0BDC046FFFFFF7F1D
:1016B000FD0C00000FB473B506AB20CB68460121CA
:1016C0002A1C0193FFF7C6FF041E14DD461C301CC4
:1016D00001F09AF9009000280DD0311C2A1C019BC2
:1016E000FFF7B8FF064B0099D86B221C01F0F6FFFC
:1016F000009801F0EFF9201C76BC08BC04B0184734
:1017000030000010A02238B5224C00215200201CCD
:1017100000F0A2FFC02001F0F5F91F4D0021C0220A
:10172000286000F099FF00232868282218215A43D6
:101730005943A218411801335162082BF5D1221CDC
:101740001649002001F056F880228023201C5B01FE
:101750000021D20000F002FF114D124C291C221C66
:10176000012001F047F880228023201C5B0100212A
:10177000D20000F0F3FE0C4C291C221C022001F0C8
:1017800039F880228023201C0021D2005B0100F068
:10179000E5FE38BD300000102C000010C8390000F4
:1017A000CA39000058000010800000100023F7B56F
:1017B0000E1C171E01930A2F01D1984222DB341C04
:1017C000391C051C01F003FB3B1C4343ED1A104B75
:1017D000621C5B5D2370002801D0141CF0E7019BA4
:1017E000002B02D02D23A21C63700021531E117008
:1017F000321C9A420AD219781078013B5870117045
:101800000132F6E7012340420193D8E7301CFEBDC8
:10181000CC390000F0B5CFB00A920B930022051C22
:10182000549B559F069218785A1C0792002801D1A4
:1018300000F091FE252802D1079A002425E0069B9E
:101840000B9A5C1CDB179A4208DC01D000F07FFE8B
:101850000A9B069A934201D800F079FEAB68013BDF
:10186000AB60002B05DB2B685A1C2A60187000F057
:101870006EFE291C00F016FF00F069FE2B2E09D920
:101880002D2E0DD1012214431A1C1678531C2B2E19
:10189000F4D10AE0202E0AD0232E0AD10822F2E742
:1018A000302E06D180229200EDE70222EBE70422DF
:1018B000E9E700212A2E0BD139683B1D002902DA05
:1018C000012049424440901C079056781F1C0BE0B1
:1018D000321C303AD0B20793092805D80A26714342
:1018E0001E7889180133F3E7C8430023C01701406D
:1018F00022910E932E2E21D1079B1E782A2E07D1DE
:101900003B6804370E93079B5E78023307930DE024
:10191000311C30390133CAB20793092A06D80A228A
:101920000E981E78424352180E92F1E70E9B002B40
:1019300002DB10231C4301E000230E936C2E0FD119
:10194000079B1E786C2E06D15E7860231C43079B94
:101950000233079304E0079B0133079320231C43C2
:101960004C2E01D0712E05D1079B1E7860231C439D
:10197000079B1DE0682E10D1079B1E78682E06D1AC
:1019800080235B001C43079B5E78023311E0079BBA
:101990000133079380231C430CE06A2E02D14023BD
:1019A0001C4303E07A2E01D0742E03D1079B1E78CE
:1019B00001330793672E1EDC652E00DBA2E2472E63
:1019C00000D19FE209DC412E00D195E2452E00D1E5
:1019D00098E2002E00D1B7E027E0612E00D18BE223
:1019E00003DC582E00D18FE11FE0632E19D0642E46
:1019F00000D12FE219E0702E00D1D3E108DC6E2E69
:101A000000D1A7E000DDD7E1692E00D122E20CE091
:101A1000752E00D1F5E1782E00D19CE1732E04D112
:101A2000B7E03B1D10933E6800E01097229B013BFE
:101A3000089301232340119339D13027A30500D403
:101A4000103F002300240E930F940E9A069B0E99CC
:101A50009B18229A023A521A089227D4069B269380
:101A6000DB172793269827990E9A0F9B12184B4144
:101A70000B99994203DC10D10A9991420DD9AB68B8
:101A8000013BAB60002B04DB2B685A1C2A601F70E3
:101A900003E0381C291C00F005FE0E980F99012266
:101AA0000023801859410E900F91CEE70693069BB4
:101AB0000B9A5C1CDB179A4204DC11D10A9B069A34
:101AC00093420DD9AB68013BAB60002B04DB2B6864
:101AD0005A1C2A601E7003E0301C291C00F0E2FD35
:101AE000119B002B02D1069400F02FFD0026002749
:101AF000F343089AD34221D4E31728942993289AD0
:101B0000299B92197B410B99994203DC11D10A99C7
:101B100091420ED9AB68013BAB60002B05DB2B6813
:101B20005A1C2A6020221A7003E02020291C00F091
:101B3000B9FD01220023B6185F41D9E7D343DB1773
:101B40001340E31800F000FD079B1097013B07933B
:101B500000F0FBFC3B1D10933B68620605D5069A1E
:101B60001A60D2175A6000F0F0FCA2060DD4E2050C
:101B700004D56A46127E1A7000F0E7FC220604D5EE
:101B80006A46128B1A8000F0E0FC069A1A6000F098
:101B9000DCFC3B1D10933B681493002B01D1BA4B26
:101BA0001493149800F02EFD1190E30603D50E9ABD
:101BB000904200DD1192229B119A9B1A08930123F7
:101BC000234022933AD130330E93A30501D420232E
:101BD0000E9300260027089B013B9A1B25D4069BE9
:101BE0000B992A93DB172B932A9A2B9B92197B41F3
:101BF000994203DC14D10A99914211D9AB68013B97
:101C0000AB60002B08DB2B6838215A1C2A606A461F
:101C1000521812781A7003E00E98291C00F042FD49
:101C200001220023B6185F41D5E7089AD043C017B8
:101C30001040069A1B1A12180692089300260027D5
:101C4000119BB34224DD069B0B992C93DB172D933C
:101C50002C9A2D9B92197B41994203DC13D10A994E
:101C6000914210D9AB68149A013BAB609219002BDA
:101C700005DB2B68591C296012781A7003E0107874
:101C8000291C00F00FFD01220023B6185F41D7E7A1
:101C9000DB43119EDB171E40069B9B190693229B7C
:101CA000002B01D100F051FC00260027F343089AD5
:101CB000D34222D4069B0B992E93DB172F932E9A97
:101CC0002F9B92197B41994203DC11D10A999142D1
:101CD0000ED9AB68013BAB60002B05DB2B685A1CAF
:101CE0002A6020221A7003E02020291C00F0DAFC70
:101CF00001220023B6185F41D8E7D043069BC017E6
:101D000010401B1800F020FC402323400AD007237A
:101D100007379F433B1C083310933A687B68049253
:101D2000059304E03A1D10923A68059304928023CB
:101D3000234004D06B461B8A0493002304E0E20591
:101D400003D56A46127C04920593504F230700D4B2
:101D50004F4F504BCAE0402323400AD00723073798
:101D60009F433B1C083310933A687B6804920593A9
:101D700004E03A1D10923A680593049280232340B0
:101D800004D06B461B8A0493002304E0E20503D5CC
:101D90006A46127C049205933F4F230700D43C4FC0
:101DA0003E4BA3E03B1D10933B683B4F0493002345
:101DB00005933A4B9C46C1E0402323400AD00723B9
:101DC00007379F433B1C083310933A687B680492A3
:101DD000059304E03A1D10923A680593049280231B
:101DE000234004D06B461B8A0493002304E0E205E1
:101DF00003D56A46127C04920593294F230774D4B5
:101E000072E0402323400AD0072307379F433B1C3F
:101E1000083310933A687B680492059304E03A1DF6
:101E200010923A68059304928023234004D06B46B5
:101E30001B8A0493002304E0E20503D56A46127C62
:101E4000049205931022124B224075D0154A14407B
:101E5000002271E063060AD5072307379F433B1C26
:101E6000083310933A687B680C920D9305E03B1D94
:101E700010933B680C93DB170D93230614D56B4628
:101E800030229B5E17E0C046DD390000E4390000D7
:101E9000253A0000EC390000E7390000FD39000068
:101EA000EA390000FFFDFFFFE30507D56B4630224E
:101EB0009B181B785BB20C93DB170D930D9B002BCB
:101EC00008DA0C980D99002342428B41C64F0492C8
:101ED00005930AE00C9A0D9BC44F04920593A30747
:101EE00003D4C34F630700D4C24F00239C46E306CC
:101EF00024D5C1490C4021E010231C4202D11C43CF
:101F0000033B0E938023DB002343E20601D4062229
:101F10000E920722073797433A1C083210921C1C76
:101F200039687A680023449145920022049205930F
:101F300000239C461F1C01E094461F1C0A980B9925
:101F4000069B41973093DB173193309A319B801A6F
:101F500099410E9B08900991409301235B42429363
:101F600043930023552046A958540133202BF9D11F
:101F70008223DB001C4201D101234093672E16DC33
:101F8000652E00DBC6E0472E00D1C3E006DC412E03
:101F900000D1BFE0452E00D0CCE0BBE0612E00D1E7
:101FA000B8E0642E11D0582E00D0C3E010E0702E9F
:101FB0000ED005DC692E08D000226F2E21D0B9E0AA
:101FC000752E02D0782E03D0B4E0002311932FE0B9
:101FD0000021049B059A0E91134300D1ACE00F231E
:101FE000049A13406246D05C46ABC854059B01314D
:101FF0001E07049B1809059B06431B0904960593BD
:10200000E7E7049B05990E920B4300D194E0072368
:1020100004990B40303346A95354059B01325807AD
:10202000049BD908059B0843DB0804900593E8E767
:10203000119B059A0E93049B134300D17CE0059BF2
:10204000049A9B0792081A43059B1E929B081F93B4
:10205000049A059B5208DB071A43059B20925B08F4
:102060002193209821991E9A1F9B12184B41190702
:102070001009084319091690179116981799121804
:102080004B411906100A0843190A1890199118981B
:10209000199912184B411904100C0843190C1A9085
:1020A0001B911A981B9912184B41002124932591DA
:1020B0002498259912184B41062600275907D00865
:1020C0000843DB0813931290049A059B1298139906
:1020D000B6185F410A22002301F0AAFA361A8F418E
:1020E0003B0732091A433B091C921D931C981D990A
:1020F000129A139B801859410A234343049A119E54
:102100003032D31A46AAB354331C013311930490CE
:1021100005918DE741AB009340AB019342AB029335
:1021200043AB0393301C44A946AA231C569EB047D8
:102130000E9001E000230E938023DB0023402393C5
:102140000DD000234093429B002B01DD013B4093C7
:10215000439B002B09DD409A013BD31804E0409BD0
:102160000E9A9B1A00D5239B40930E9B409A419850
:102170009E1800F047FA229B9E1B331A11930123ED
:10218000234022931D4B1C4205D000270022002330
:102190001492159349E000260027119B013B9A1BDE
:1021A0001AD4099BBB4203DC11D1089BB3420ED960
:1021B000AB68013BAB60002B05DB2B685A1C2A6027
:1021C00020221A7003E02020291C00F06BFA012263
:1021D0000023B6185F41E0E7119AD743FF17174075
:1021E000DB1B1193D2E7C046C639000094390000CA
:1021F00096390000253A0000FFFDFFFF01020000B4
:10220000FB173393329732983399149A159B12180F
:102210004B410999994215DC11D014981599012266
:1022200000238018594114901591149BFE18419B6E
:102230005A1C41921B789C46002BE1D112E0089970
:102240009142EAD9AB68013BAB60002B05DB2B6800
:102250005A1C2A6062461A70DFE76046291C00F0AB
:1022600021FADAE7229B371C002B3AD13027A3054D
:1022700000D4103F0023002414931594119B149A4A
:10228000013B9A1A26D4F31735933496349835992E
:10229000149A159B12184B410999994203DC10D1ED
:1022A000089991420DD9AB68013BAB60002B04DB70
:1022B0002B685A1C2A601F7003E0381C291C00F090
:1022C000F1F91498159901220023801859411490AE
:1022D0001591D3E7119AD043C01710401B1A371835
:1022E0001193239B0026002B00D18AE00E9B9E4277
:1022F00000DBEFE046ABF05C3C2806D03E2867D11F
:10230000002300241493159447E000230024149321
:102310001594149BFC18429B013B4293002B6DDBF0
:10232000FB173793369736983799149A159B1218DE
:102330004B410999994203DC11D1089991420ED978
:10234000AB68013BAB60002B05DB2B685A1C2A6095
:1023500030221A7003E03020291C00F0A3F91498F1
:102360001599012200238018594114901591D0E746
:10237000FB173993389738983999149A159B121886
:102380004B410999994213DC0FD0149815990122F9
:1023900000238018594114901591149BFC18439BFD
:1023A000013B4393002BE3DA28E008999142ECD9F2
:1023B000AB68013BAB60002B05DB2B685A1C2A6025
:1023C00030221A70E1E7291C302000F06BF9DCE7BD
:1023D000099A7C1CFB179A4203DC0FD1089BBB4275
:1023E0000CD9AB68013BAB60002B04DB2B685A1C9B
:1023F0002A60187002E0291C00F054F90136271CED
:1024000074E70023002414931594149BFC18409B3C
:10241000013B4093002B27DBFB173B933A973A98FD
:102420003B99149A159B12184B410999994203DC68
:1024300011D1089991420ED9AB68013BAB60002BDA
:1024400005DB2B685A1C2A6030221A7003E030200A
:10245000291C00F027F914981599012200238018EF
:10246000594114901591D0E7002600270E9A331C8D
:10247000921B002A29DDE2173D923C943C983D993D
:1024800080197941099A8A4203DC19D1089A82425B
:1024900016D9AA680E99013AAA60CB1A002A08DB5D
:1024A0002A68511C29604EA9CB18213B1B78137058
:1024B00006E04EAAD318213B1878291C00F0F2F848
:1024C00001220023B6185F41D0E70E9BDF43FF17C0
:1024D0001F40E719002300240E930F94229B002B2A
:1024E00030D00E9B119ADB43D34227D4FB173F9386
:1024F0003E973E983F990E9A0F9B12184B410999AF
:10250000994203DC11D1089991420ED9AB68013B85
:10251000AB60002B05DB2B685A1C2A6020221A7046
:1025200003E02020291C00F0BDF80E980F9901222D
:102530000023801859410E900F91D2E7D043C01765
:1025400010403F18069BDB190693109F069C0694CB
:10255000079BFFF768F906984FB0F0BDF0B5C56866
:102560000124AE071AD08026B600B2420BD08026D6
:10257000F600B24204D080267600B2420ED102E0CC
:10258000416A231C04E0064E5F1E0124B74205D8B1
:102590000024154301610160C361C560201CF0BDCA
:1025A000FEFFFF00021C10B51378002B01D0013292
:1025B000FAE7CC5CD4540133002CFAD110BD0000F2
:1025C000031C0B4330B59B0711D1031C0A680B4C4D
:1025D0000B4D141994432C4202D104C30431F5E786
:1025E000D1B219700133002907D01212F8E7002385
:1025F000CA5CC2540133002AFAD130BDFFFEFEFE90
:102600008080808010B5431C820706D00130421EB6
:102610001278002AF8D1C01A18E002680C490D4C53
:1026200051189143214201D10430F6E7D4B2411C44
:10263000002C0AD0FF242402811C224205D0FF2452
:102640002404C11C224200D0011DC81A10BDC0467E
:10265000FFFEFEFE8080808008B501F000F808BD16
:10266000202310B5041CC2689A43436AE2605B6889
:1026700082699A420DD000F0F1F8E268074B1340EE
:1026800010221343626AE3605368A3612369936075
:102690002360E268024B1340E36010BDEFCFFFFF01
:1026A000BFBFFFFFF8B5CA684F4B051C13400C1C99
:1026B000CB60930602D5081CFFF7D2FFA168E36840
:1026C0004A1C0EDA9A050CD402225242521AA26017
:1026D000902252021343E36023685A1C22601D704B
:1026E0007FE0424A1E1C1A40022A05D00022A26046
:1026F00080321343E36054E03D490B4080210902DE
:102700008B420AD1201C002100F05EFAE3689B0690
:1027100002D5201CFFF7A4FFE6689023F0225B029D
:1027200033431201E36016421ED1606900F0BEFF20
:1027300000280BD0730509D5636A23612360012348
:10274000E36192235B023343E3600DE080277F0166
:10275000381C00F0D7F99423E2685B0233431A4334
:1027600020612060E761E26090210901226826690A
:102770000B4219D0636A99688A4200D9111C891BDF
:1027800009D1636A721C9A602260E269511EA160DD
:10279000DA60357025E0301C221C00F0FFF80028BC
:1027A000EFD0012040421DE0511CE8B221601070C2
:1027B000626A276891688F4200D9391CE769891BD2
:1027C000D7605B0503D40A2801D0B94209DB002396
:1027D0009660301C2660A360221C00F0DFF8002801
:1027E000DFD1E8B2F8BDC046FFFFF7FF8A10000056
:1027F00010A0000070B50D1C061C101C141C00F06D
:1028000091F92B78722B09D0772B04D0612B20D132
:102810000823114A04E00423022201E000230122DC
:10282000013529782B2905D0622908D104210A43D2
:10283000033902E003210A4301390B43F0E7E26068
:1028400066611B0706D5201C0021022200F0BCF99E
:1028500000E00024201C70BD0280000038B5436AEF
:10286000C2689968144B05691340C36082230468E9
:102870001340022B02D001235B421BE080235B024A
:10288000134017D0A14200D2211C041CA94209D137
:10289000636AE1689D600023084A25600A40A360DE
:1028A000E26007E0491B281C221C00F077F8002892
:1028B000EED0E0E7181C38BDFFFFF7FFFFFFFEFF7B
:1028C000F7B5002300920022041C0D1C00F008FE46
:1028D000002805D00023009A00201360002128E082
:1028E0006B00154A5B0D201C291C9F18002B19D169
:1028F000221C2B031B0B802636031E405B009C46CC
:1029000001966646D30F3343019E1B031B0B5200F7
:10291000002E05D02C0D24051C43211C101C01E0A9
:10292000013FE8E7009B054A1F60054B0B401A4337
:10293000111C03B0F0BDC04602FCFFFF0000E03FE9
:10294000FFFF0F8070B50023161C0022041C0D1C15
:1029500000F0C6FD002802D00020002115E06A002A
:10296000520D0A4B9219201C9A4206DD2222084B76
:102970001A60084B1868596807E0002AECDD064B1E
:10298000520552082B401343191C70BDFE0700006E
:1029900004000010283A0000FFFF0F80F7B5D6684A
:1029A00001900D1C141C5769F30205D51023381C27
:1029B0001E4300F075FEA061114B1E4209D0381C69
:1029C000A16900F07FFE8023002811DB0D4B1E4023
:1029D000E6602A1C381C019900F080FE43005B0869
:1029E000ED1AA3695D190023A561984205D08033D3
:1029F000E2681343E36001235B42181CFEBDC0463E
:102A000010000200EFFFFDFFF7B5314EC51C346822
:102A1000AD080196002813D08022291CEB1C00274A
:102A200052050A319C4604E02368934213D0271CC8
:102A3000A468002CF8D10C3000F076F9431C0FD1BB
:102A4000002043E03E68964217D17E689B1903330D
:102A50006360BB68A360A7686368002FF2D10CE0D5
:102A600080239B05036045608460002F02D1019B99
:102A7000186000E0B8600C3028E0AB4205DB9C45F4
:102A800003DB80239B0523601EE08B4210D980224C
:102A9000201C8021920522600C30AA005B1B82184A
:102AA0004905033B6560A2601160536097600DE0CB
:102AB000002FBCD19B00C01A00F036F9431CBFD0D8
:102AC00080239B0523606560201CD4E7FEBDC046C3
:102AD0007001001010B5002812D080235B05191C6E
:102AE0000C3803608268002A0AD013688B4207D131
:102AF000546843681B190333436093688360F1E7AC
:102B000010BD000010B5FFF77FFF041E05D104497A
:102B1000172200F0E3FD00F0B7FD201C10BDC046F9
:102B20000E3A0000F0B5436AC5688BB04769066984
:102B30000193AB0727D0041C2B0716D400F02AF80A
:102B4000381C00F0A7FD2B0502D5301CFFF7C2FF93
:102B50000F4BAD0DAD059D4207D102A8216A202281
:102B600000F0B6FD02A800F0D5F800211822606A36
:102B7000FFF772FD201C00212822FFF76DFD019B4D
:102B80000020636201E0012040420BB0F0BDC0466E
:102B9000000080AD38B5002803D000F0E5F8051C32
:102BA0000EE0041C051C0748201800F0DDF8002882
:102BB00001D001256D42A02328345B009C42F2D154
:102BC000281C38BD30000010F7B5C368161C0093F0
:102BD000009A3B4B041C0D1C47691A426BD0381CF1
:102BE00000F064FD0190002865D1012E04D0022E72
:102BF00007D0002E5FD124E0201C00F065F82D18CE
:102C00001FE0381C00F04CFD002805DA8023E26844
:102C10001343E36001234FE0626A2168936899429D
:102C200000D90B1CA1695B1821695B1AE168890650
:102C300003D55268934200DA131C834200DA031C66
:102C4000ED18002D37DB009B616A9B0404D52368D7
:102C50008A689A4200D28B60A3699D420DDB20688E
:102C60008A68824200D2021C2069D618361AB54200
:102C700003DCCF68DE19B54207DB2023009A13433B
:102C80000022A26062604D6011E0ED1A009B9B077C
:102C900001D5EF1BA760009BDB0702D5821AAA189B
:102CA00062602023009A45199A43131C2560054A47
:102CB0001340E36001E0022301930198FEBDC0468A
:102CC00003001000BFCFF7FFC3689A0705D1212288
:102CD00001200F4B40421A6018E0202219030BD547
:102CE000134202D0436A586804E0036882690069AD
:102CF0009B18181A013809E0134202D0436A586839
:102D000004E00368826900699B18181A7047C0467E
:102D10000400001010B5041CFFF774FC011C201CFB
:102D200000F0CAFC10BD000070B50C4D2B68002BE4
:102D300001D10B4B2B600323C41C2E689C43341918
:102D4000201C00F037F8002802D12C60301C04E071
:102D50000C220120034B40421A6070BD7401001028
:102D600078010010040000100323C26870B51340FE
:102D7000041C181E1AD0930605D5636A201C5E68D1
:102D8000FFF76EFC04E02368A2699E182369F61A17
:102D9000E268074B201C1340E360FFF75FFD051C52
:102DA000311C201C0022FFF70FFF281C70BDC046FD
:102DB000FFCFFFFF034B021C181E02D000209A42D7
:102DC000404170470000000003000B4321D400295C
:102DD00031D00122D207030901E009011209994209
:102DE000FBD9430801E0490052089942FBD900E0B1
:102DF0004908401A07D35241FAD30146104670479A
:102E000049084018F7D29218FAD3401801461046E4
:102E10007047CB0F00D04942021000D540425340CA
:102E200008B5FFF7D4FF0CBC521000D34042002A73
:102E300000D549421847F446002000F001F86047E9
:102E400070470000F0B5071C081C4D0087B06D0DE1
:102E50005840002D7DD0504CA5427AD05E00760DB2
:102E600077D0A64275D0141C7219802509038026DC
:102E7000090B6D030D430021C00F0192C2070092A0
:102E8000DB02620D134336061E432A1C301C0B1C4A
:102E900000F0CEFB029003910021E402221C281CCA
:102EA0000B1C00F0C5FB059100213A1C04900B1C83
:102EB000301C00F0BDFB0E1C00213A1C051C0B1C35
:102EC000201C00F0B5FB8446081C00210B1C049A52
:102ED0000F1C12184B41521973411E1C0B1C0298F7
:102EE0000399141C059A92197B4112184B416146B3
:102EF00088080443019929480918294898420CD3A5
:102F0000161C1F1CB6185F4126483B1C8446E00F68
:102F10003043021C0199640061440027E60F9219B6
:102F20007B418020151C0006844201D1012085438D
:102F30001D48814205D80A050099281C19435118DB
:102F400027E0009B002902DB184B009A1343002066
:102F50001EE0C20F1648D2074900814205D85C0026
:102F6000844205D80020111C13E01248814203D18D
:102F700010485B00834201D9002005E0490D002084
:102F8000002901D05B0D01D10B4902E0074B13432F
:102F9000191C07B0F0BDC046FF07000001FCFFFF91
:102FA000FFFF0F0000FCFFFFFD0700000000F07FA7
:102FB000FFFFDFFF0000E0FF0000F87FF7B54F00E4
:102FC0007D0D66D04A4CA446A54262D05F007C0DC0
:102FD0005FD064455DD02F1B0C1C5C400194C9027E
:102FE000440D214380242406A446C40260460843BD
:102FF0006146051CDB02500D03430B43D202AB427A
:1030000002D803D1A24201D93A4908E0E9078C4627
:10301000664660080643341C69080D1C3649500892
:103020007F18D90708433522590800235B00A942BD
:1030300006D801D1A04203D80126241A8D4133437A
:1030400024196D41561E212A02D10093321CEDE74E
:10305000321EEBD1009A94461A1CA94208D801D11D
:10306000A04205D85A1C002A02D1009B01339C467D
:10307000019B2249DB0FDB078F4203D83F05FB187A
:1030800063441CE01A1C002F01DB1D4A1A43002078
:1030900023E01C4D4C00AC4226D85800A84223D84F
:1030A0001A1C0A435200520D520502D11649101C37
:1030B0001CE04B40DB0F620DDB07520501D1191CF0
:1030C000F5E7420D520503D10D4C1C43211CEEE7E0
:1030D000A84204D000200A4A1A43111C06E0844288
:1030E00002D00020191C01E00020074903B0F0BD08
:1030F000FF070000FD030000FE030000FD070000C5
:103100000000F07F0000E0FF0000F87FF7B51E1C14
:103110000D1C01920F1C111C321C6A40041C9446A9
:10312000002A07DA802424060A1C3319291C00F01F
:10313000D9F8CBE09D4203D388420DD89D420BD1F4
:103140008023019A1B065040634442405D4050403A
:103150002F1C111C041C73405D4A5E483E0D1D0D62
:10316000751B3240824200D1A3E0954200D19AE023
:1031700080203A031B034003120B1B0B0243034343
:103180001F2D51D8181CE8402027121A081CE840AF
:103190007D1BAB400343E71ABC42A4410B1C6442B5
:1031A000121BAB403C1C002B05D0013C611C48426B
:1031B00041415B42521AC02149030A4253D1E10FF7
:1031C000DB0F640023431C1C52000A431443B11E4E
:1031D000002C01D1211C78E0500B05D1180E1202F1
:1031E00002431B020839F7E7500C04D1180F1201F3
:1031F00002431B010439D00C04D1980F9200024302
:103200009B000239100D04D1D80F520002435B001D
:103210000139F60AC80A864203D10C05A118181C08
:1032200054E00020F10751E0352D1CD8281C1F1C4C
:103230002038C740E71BBC42A4416442121B402413
:10324000651B0C1CAB40C44009062343002902D077
:10325000FF210B4302E03C1C002B04D07C1E794272
:1032600079415B42521AD1020CD4013E750507D058
:10327000E10F52000A436400D90F0C435B0001E0E8
:1032800031051FE0144936050A40002B09DA0134E4
:10329000614261415218802109068B4201D101230C
:1032A0009C43911911E00D4B9D4202D8291E09D073
:1032B0000AE03B030020002B01D0094906E0002D65
:1032C00002D10749281C01E0391C201C03B0F0BDC5
:1032D000FFF7FFFFFF070000FFFFEFFFFE07000003
:1032E0000000F87FF7B5161C0190041C181C0D1C7B
:1032F0001A1C371C484007D580252D0601985B19FC
:10330000321CFFF703FF81E0994209D2051C021C21
:1033100001984D40704046407040371C041C5A4094
:103320003B4B3C48290D0B40834267D0160D8E1B4A
:103330009E425AD080202B03120340031B0B120B1A
:10334000034302431F2E10D8101CF04020251B18E9
:10335000381CF040AE1BB2400243A4189442924184
:1033600052429B183A1CB24015E0352E13D8351C3A
:10337000101C203DE84024188442804140421B1824
:103380004020861B381CB240E8403F060243002F15
:1033900001D0FF200243980217D5013460426041FA
:1033A0001B18002A01D10232944308055A0812184A
:1033B00019485500854204D86408DB07111C1C43DA
:1033C00023E04B1C0020190520E00139002A09DA0E
:1033D0000134604260411B1880200006824201D106
:1033E000012294430A0599180FE00C4B9E4205D820
:1033F000002E09D1ED0FE907301C07E02B03002058
:10340000002B01D0064901E0291C201C03B0F0BDAF
:10341000FFF7FFFFFF070000FFFFDFFFFE070000D1
:103420000000F87F400D031C8020CA0213430006F1
:1034300018430B4B0A0D9B1AD840FF2B0ED9E022E4
:10344000D2004042134209D000204B0006D5054B64
:103450004A009A4202D8044BC90FC8187047C046A8
:103460001E0400000000E0FFFFFFFF7F10B50028F2
:1034700002D1031C021C25E0030C01D1000402E070
:1034800080235B04C918030E01D1000202E08023EF
:103490001B04C918030F01D1000102E08023DB03E4
:1034A000C918830F01D1800002E080239B03C91853
:1034B000002801DB400002E080235B03C918C4122E
:1034C00063184205101C191C10BDC10F08B5C907AF
:1034D00000D040428023DB05C918FFF7C7FF08BDB5
:1034E000F0B50F1C4900051C1E1C141C084304D118
:1034F0005B001A430130002A07D00020B74204D1F4
:10350000A54202D1014B8B424041F0BD0000E0FFDB
:10351000F0B50C1C0E1C1D1C1C43134F0CD45B007F
:103520000024BB421ED801348D421BD80024904297
:1035300080418D4216D114E049000024B94211D8CF
:103540005B00BB420ED80143A14202D11343A34208
:1035500008D00124AE4205D80024AE4202D18242F6
:1035600080414442201CF0BD0000E0FFF7B50C1C78
:103570000E1C1D1C01921C43134F0DD45B00002434
:10358000BB421ED801348D421BD800248D4218D175
:10359000131C8342644114E049000024B94210D84E
:1035A0005B00BB420DD80134AE420AD802D1019D66
:1035B000A84206D200240143A14202D113435C4237
:1035C0005C41201CFEBDC0460000E0FFF7B5041CB6
:1035D0000090081C1843019014480D1C8446019863
:1035E0001E1C490000280BDB002061451CD801305F
:1035F0009D4219D800209D4216D19442404113E0CB
:103600000020614510D85B0063450DD80130AE4203
:103610000AD802D1009DAA4206D20020214381424D
:1036200002D1134358425841FEBDC0460000E0FF9E
:1036300010B543435143C918040C130C5C430919DA
:1036400092B2040C544380B2434350432204240CEE
:10365000801861411A041B0C8018594110BD844622
:10366000043A09D3830707D109060B0A19430B0C47
:103670001943043A02C0FCD2043203D00170013075
:10368000013AFBD16046704718200149ABBE704734
:103690002600020003B469460220ABBE02B07047A8
:1036A00003B469460C20ABBE02B0704703B4694650
:1036B0000920ABBE02B0704703B469460E20ABBE12
:1036C00002B0704703B469460A20ABBE02B070472F
:1036D0000FB469460D20ABBE04B070470FB4694605
:1036E0000520ABBE04B07047307800003000000009
:1036F0004A756D70696E6720746F206170706C69B7
:10370000636174696F6E210A0D000000506172746C
:103710002049443A200000000A0D000053746172F1
:1037200074696E6720617420616464723A200000DD
:1037300046696E6973686564206265666F726520AC
:10374000636865636B696E6720617420616464728D
:103750003A200000207769746820636865636B73A2
:10376000756D206F6620000043616C63756C617439
:10377000696E6720666F7220696D616765206C6590
:103780006E677468206F662000000000207061671B
:1037900065730A0D00000000436F6D6D656E63690F
:1037A0006E6720696E7465726E616C206368656314
:1037B0006B73756D2063616C632C20666F722000E3
:1037C0002062797465730A0D000000004669727307
:1037D00074626F6F7420666C6167206368616E67E6
:1037E000656420616E642076657269666965643A15
:1037F000200000004669727374626F6F7420666CFB
:103800006167206368616E6765206661696C6564E5
:103810003A2000004669727374626F6F7420666CA0
:103820006167207365743A2000000000496D61678C
:1038300065206C656E67746820746F2062653A203D
:10384000000000002C207768657265204D534220EF
:1038500069733A200000000043757272656E746CE3
:1038600079207772697474656E20696D616765206F
:103870006C656E6774683A2000000000496D6167EE
:1038800065206C656E67746820757064617465642A
:103890003A200000496D616765206C656E67746849
:1038A00020757064617465207374657020322046E1
:1038B00041494C45443A2000496D616765206C657B
:1038C0006E677468207570646174652073746570C8
:1038D0002031204641494C45443A200046697273E4
:1038E00074626F6F7420666C6167206E6F742073F2
:1038F00065742E20497320307830302E0A0D000078
:10390000457870656374696E6720312062797465EB
:1039100020636865636B73756D20666F7220696ED6
:103920007465726E616C20696D6167653A20000094
:10393000526563656976656420636865636B73755A
:103940006D3A2000496E7465726E616C20666C6120
:10395000736820636865636B73756D204F4B2E0A27
:103960000D0000004C315544455630303141206245
:103970006F6F746C6F6164657220697320676F216B
:103980000A0D00004D616A6F72206572726F722EAF
:103990000A0D00002B00200030782563702564009C
:1039A0003058256350256400307825632E252E2A53
:1039B0006C6C7870256400305825632E252E2A6C97
:1039C0006C58502564002D0072007700303132337E
:1039D00034353637383961626364656600286E7540
:1039E0006C6C2900305800307800300030313233B0
:1039F0003435363738394142434445460030313258
:103A000033343536373839616263646566002A2A93
:103A10002A205F437379735F616C6C6F632066610A
:103A2000696C65640A000000FFFFFFFFFFFFEF7F86
:043A3000F11FFF1F64
:040000030000015D9B
:00000001FF
