:10000000002000105D010000F5010000FD0100006E
:1000100000000000000000000000000000000000E0
:1000200000000000000000000000000005020000C9
:1000300000000000000000000D020000150200009A
:100040001D0200001D0200001D0200001D02000034
:100050001D0200001D0200001D0200001D02000024
:100060001D0200001D020000000000000000000052
:1000700000000000000000001D0200001D02000042
:100080001D0200001D0200001D0200001D020000F4
:100090001D0200001D0200001D0200001D020000E4
:1000A0001D0200001D0200001D0200001D020000D4
:1000B00000000000000000001D0200000000000021
:1000C000F41A00000000001004000000F41A000000
:1000D0000040002000000000040000107401000037
:1000E000004000200000000080B588B000AFF8603C
:1000F000B9607A60BB68FB61FB68BB6100237B6110
:100100000AE0FB691A1DFA61BA69111DB96112682A
:100110001A607B6904337B617A697B689A42F0D309
:10012000BD4608B080BDC04680B584B000AF7860E1
:1001300039607B68FB600023BB6007E0FB681A1D29
:10014000FA6000221A60BB680433BB60BA683B687F
:100150009A42F3D3BD4604B080BDC04680B586B098
:1001600000AF204B3B613B691B68C02212051A435C
:100170003B691A601C4B7B6116E07B691A1D7A6132
:100180001B68FB607B691A1D7A611B68BB607B6919
:100190001A1D7A611B687B60F968BA687B68081C65
:1001A000111C1A1CFFF7A0FF7A69104B9A42E4D386
:1001B0000FE07B691A1D7A611B68BB607B691A1DA1
:1001C0007A611B687B60BA687B68101C191CFFF79A
:1001D000ABFF7A69064B9A42EBD300F08BFD00F03F
:1001E000C9FDFEE780800440C0000000D800000088
:1001F000E800000080B500AFFEE7C04680B500AF64
:10020000FEE7C04680B500AFFEE7C04680B500AF50
:10021000FEE7C04680B500AFFEE7C04680B500AF40
:10022000FEE7C04680B582B000AF1A4B194AD26CC7
:1002300001210A43DA64174B164A926C01210A43E2
:100240009A641549144A8023D358802252011343DB
:1002500080228B50104A98230121D1504C237B607F
:100260000E4BC1229A620D4B8322DA600B4B7A68E7
:10027000120A5A60094B7A68FF210A401A60074B3C
:100280000322DA60054B07229A60C046BD4602B0E1
:1002900080BDC04600400440008004400080004013
:1002A00080B584B000AF78600023FB600EE0C046EC
:1002B0000B4B5B6920221340FAD0094BFA6879682E
:1002C0008A1812781A60FB680133FB60FB687A6851
:1002D000D3181B78002BEAD1C046BD4604B080BDC0
:1002E0000080004080B58EB000AF786039607A68D9
:1002F0000C23FB18101C191C102200F099FD202360
:10030000FA18174B101C191C00F0F8FD0C23FB18F1
:10031000181C00F015FE031C7B633A687B6BD31A34
:100320007B6309E02023FA180E4B101C191C00F007
:10033000D7FD7B6B013B7B637B6B002BF2DC2023C7
:10034000FA180C23FB18101C191C00F0C9FD2023FF
:10035000FB18181CFFF7A4FFC046BD460EB080BDB9
:10036000DC150000E015000080B500AF064B181C3E
:10037000FFF796FF054800688546054800688746F0
:10038000C046BD4680BDC046E415000000410000E7
:100390000441000080B500AF0023181CBD4680BD9D
:1003A00080B500AF0023181CBD4680BD80B582B06B
:1003B00000AF00F081FC031C7B60114B181CFFF7A1
:1003C0006FFF7B68181C0821FFF78CFF0D4B181C72
:1003D000FFF766FF7B680C4A934205D00B4A9342B5
:1003E00005D123237B6005E023237B6002E000230B
:1003F0007B60C0467B68181CBD4602B080BDC0460D
:10040000001600000C16000040BC000040BC0100BB
:1004100080B586B000AFF860B960FB1D1A70172375
:10042000FB18FA1D12781A70324B181CFFF738FFB0
:10043000FB68181C0821FFF755FF2F4B181CFFF70E
:100440002FFF35E0FB6819781723FB181722BA181D
:1004500012784A401A701723FB181B789B09DAB2EE
:100460001723FB181B78DB09DBB25340D9B21723E3
:10047000FB181722BA1812784A401A701723FB1873
:100480001B785B00DAB21723FB181B789B00DBB2EA
:100490005340DAB21723FB181B785340DAB2172304
:1004A000FB181A70FB680133FB60BB68013BBB6043
:1004B000BB68002BC6D1114B181CFFF7F1FEFB687F
:1004C000181C0821FFF70EFF0D4B181CFFF7E8FE64
:1004D0001723FB181B78181C0221FFF703FF064B9C
:1004E000181CFFF7DDFE1723FB181B78181CBD46F0
:1004F00006B080BD101600000C1600002416000087
:1005000048160000B0B582B000AF314B181C00F0A7
:100510007BFA031C3B60DB177B603B681B0E7A6831
:10052000120213437B603B681B023B60294B181C83
:1005300000F06AFA021CFF2313401C1CDB171D1C71
:100540003B6823433B607B682B437B603B681B0419
:100550001B0C3B607B68002213407B603B687C681F
:1005600001214942CA175B1854413B607C601A4B19
:10057000181CFFF795FE3B68181C0421FFF7B2FE1C
:10058000164B181CFFF78CFE3B681B0E7A68120294
:1005900013437B603B681B023B60114B181CFFF749
:1005A0007FFE3B68181C0421FFF79CFE0D4B181CB6
:1005B000FFF776FE3A688223DB01181C111CFF222C
:1005C000FFF726FF031C181CBD4602B0B0BDC04695
:1005D0000D4000000C4000005C160000801600007A
:1005E0008C160000B416000080B500AF1B4B181C21
:1005F000FFF756FEFFF786FF031C191C184A194B1C
:10060000101C1A1C00F0B6FA031E11D0164B181C51
:10061000FFF746FE124B181C00F0F6F9031C181CDD
:100620000221FFF75FFE114B181CFFF739FE10E0A7
:100630000F4B181CFFF734FE094B181C00F0E4F9AF
:10064000031C181C0221FFF74DFE084B181CFFF776
:1006500027FE0123181CBD4680BDC046C016000001
:10066000FF400000E02E0000E81600000C1600001D
:100670001817000080B582B000AF01237B601A4AD2
:100680001A4B101C00211A1C00F074FA031C7B602A
:100690007B68002B12D1164B181CFFF701FE124B82
:1006A000181C00F0B1F9031C181C0221FFF71AFEF8
:1006B000104B181CFFF7F4FD012311E00E4B181C22
:1006C000FFF7EEFD084B181C00F09EF9031C181CE8
:1006D0000221FFF707FE074B181CFFF7E1FD00237F
:1006E000181CBD4602B080BD0A400000E02E00008C
:1006F000401700000C1600006817000090B585B088
:1007000000AF0023FB607F4B181C00F07DF9031E37
:1007100000D1B3E07C4B181CFFF7C2FD794B181CCD
:1007200000F072F9031C181C0221FFF7DBFD774B68
:10073000181CFFF7B5FDC023BB60BB681A12FB1D78
:100740001A70734B181CFFF7ABFDBB68181C042113
:10075000FFF7C8FD6F4B181CFFF7A2FDFB1D1B78B0
:10076000181C0221FFF7BEFD684B181CFFF798FD0F
:10077000694B181CFFF794FD684B181C00F044F9F6
:10078000031C1C02664B181C00F03EF9021CFF23E0
:100790001340E318181C0421FFF7A4FD5B4B181C41
:1007A000FFF77EFDFB1D1B785C495E4A081C191C87
:1007B00000F0E0F9031E45D1BB68FF221340584901
:1007C000584A081C191C00F0D5F9031E20D1564BBD
:1007D000181CFFF765FD514B181C00F015F9031CA0
:1007E0001C024F4B181C00F00FF9021CFF23134092
:1007F000E318181C0421FFF775FD444B181CFFF784
:100800004FFDFFF7F1FEFFF735FF031E35D133E053
:10081000464B181CFFF744FD404B181C00F0F4F841
:10082000031C1C023E4B181C00F0EEF8031CE318DE
:10083000181C0421FFF756FD344B181CFFF730FD40
:1008400000235BE03A4B181CFFF72AFD334B181CC2
:1008500000F0DAF8031C1C02314B181C00F0D4F82D
:10086000031CE318181C0421FFF73CFD274B181C40
:10087000FFF716FD002341E0FEE703E02D4B181CB7
:10088000FFF70EFDFFF792FD031E232B35D12A4BF8
:10089000181CFFF705FD294B181C00F0B5F8031CC8
:1008A000181C0221FFF71EFD184B181CFFF7F8FC5F
:1008B000FFF728FE031CFB60214B181CFFF7F0FC20
:1008C000FB68181C0221FFF70DFD104B181CFFF7E9
:1008D000E7FC1A4B181C00F097F8021EFB689A42BE
:1008E00005D1184B181CFFF7DBFC012306E0164B63
:1008F000181CFFF7D5FC002300E00123181CBD469F
:1009000005B090BD0A400000881700000C160000DA
:10091000A0170000B8170000CC1700000D40000021
:100920000C400000E02E0000F01700000818000046
:100930002C1800005018000074180000FF40000040
:10094000A4180000B8180000D818000080B500AF47
:10095000FFF768FC214B181CFFF7A2FC204B181C6A
:10096000FFF79EFC1F4B181CFFF79AFC1E4B181C30
:10097000FFF796FC1D4B181CFFF792FC1C4B181C34
:10098000FFF78EFC1B4B181CFFF78AFC1A4B181C38
:10099000FFF786FC134B181CFFF782FC174B181C43
:1009A000FFF77EFC164B181CFFF77AFCFFF7F2FCF2
:1009B000031E01D0FFF7F4FCFFF7A0FE031E01D0D9
:1009C000FFF7D2FCFFF79AFE031E01D0FFF7CCFC25
:1009D0000C4B181CFFF764FCFEE7C0460C16000029
:1009E000001900004819000068190000A019000053
:1009F000C8190000F41900001C1A00004C1A00006D
:100A0000941A0000B41A000080B584B000AF78607A
:100A10000F23FB1800221A700F23FB187A68127834
:100A20001A700F23FB181B78181CBD4604B080BD3C
:100A300080B586B000AF786000237B6180235B01C6
:100A4000FB6000233B6106E03A69FB68D3183B6119
:100A50007B6901337B613A697B689A42F4DB7B698D
:100A6000181CBD4606B080BD80B582B000AF78606E
:100A70003960104B32221A607A680E4B5A603A681D
:100A80000C4B9A600C4B1B680A490C4A081C111C41
:100A90009847C046094B1B680B2BFBD0074B1B68C4
:100AA000002B01D1002300E00123181CBD4602B039
:100AB00080BDC046180000100000001008000010A3
:100AC00090B585B000AFF860B9607A603B607A6835
:100AD00080235B009A4210D07A6880239B009A4260
:100AE0000BD07A688023DB009A4206D07A68802394
:100AF0005B019A4201D0012331E0FB68181CFFF72B
:100B000097FF041CFA687B68D318181CFFF790FF46
:100B1000031C201C191CFFF7A7FF134B33221A607C
:100B2000FA68114B5A60BA680F4B9A607A680E4B9C
:100B3000DA603A680C4B1A610C4B1B680A490C4A84
:100B4000081C111C9847C046094B1B680B2BFBD097
:100B5000074B1B68002B01D1002300E00123181C68
:100B6000BD4605B090BDC046180000100000001042
:100B70000800001080B5C8B000AFF8607A604C4B38
:100B8000902252009446BC4463440A1C1A7080238D
:100B90005B008A225200BA18136000238E22520092
:100BA000BA1813600CE08E235B00FB181A688A23C6
:100BB0005B00FB181B68D3188E225200BA18136012
:100BC0008E235B00FB181A68FB689A42EBDB8E23CE
:100BD0005B00FB181A688A235B00FB181B68D31A9A
:100BE0008E225200BA18136000238C225200BA18C9
:100BF000136022E08E235B00FB181A688C235B00D5
:100C0000FB181B68D318181CFFF7FEFE031C191CE9
:100C1000284B90225200BA18D2188C235B00FB1884
:100C20001B68D3180A1C1A708C235B00FB181B6806
:100C300001338C225200BA1813608C235B00FB181E
:100C40001B68FF2BD6DDFA688E235B00FB181B6840
:100C5000D31A184A902149008C46BC446244144976
:100C6000902040008446BC4461440978D154142348
:100C7000F9188E235B00FB18186880235A007B68E4
:100C8000FFF71EFFFB68181CFFF7BEFE031C1A1CB3
:100C9000074B902149008C46BC4463441B78934227
:100CA00001D1002300E00123181CBD4648B080BDDF
:100CB000EBFEFFFFF4FEFFFF80B500AF0A4B3622CC
:100CC0001A600A4B1B680849094A081C111C9847FE
:100CD000074B1B68002B02D1054B5B6800E001232A
:100CE000181CBD4680BDC046180000100000001052
:100CF000080000108E2120201C4B89005A5882B019
:100D000082435A5000221A620192019AC72A03D8DC
:100D1000C046019A0132F7E7012200211A645A64A1
:100D200059645A640121586C104A0842FAD00020D4
:100D300010675167506751670121586F0B4A08428D
:100D4000FAD08E23802091679B00D158C0000143C8
:100D50008020D150D15840000143D1508021044A15
:100D60004902D36F0B43D36702B070470080044041
:100D700004800440002008B5011C021C00F004F8A7
:100D8000FFF7E4FD08BD0000A02238B5224C002189
:100D90005200201C00F0FEF8C02000F03BFA1F4D6E
:100DA0000021C022286000F0F5F8002328682822DE
:100DB00018215A435943A218411801335162082B94
:100DC000F5D1221C1649002000F00AF98022802368
:100DD000201C5B010021D20000F05EF8114D124C86
:100DE000291C221C012000F0FBF880228023201CFB
:100DF0005B010021D20000F04FF80C4C291C221C92
:100E0000022000F0EDF880228023201C0021D20077
:100E10005B0100F041F838BD300000102C000010DC
:100E2000C41A0000C61A000058000010800000100C
:100E30000023F7B50E1C171E01930A2F01D198420B
:100E400022DB341C391C051C00F049FB3B1C4343CE
:100E5000ED1A104B621C5B5D2370002801D0141C3E
:100E6000F0E7019B002B02D02D23A21C6370002110
:100E7000531E1170321C9A420AD219781078013B25
:100E8000587011700132F6E7012340420193D8E710
:100E9000301CFEBDC81A0000F0B5C5680124AE07BD
:100EA0001AD08026B600B2420BD08026F600B2429D
:100EB00004D080267600B2420ED102E0416A231CA3
:100EC00004E0064E5F1E0124B74205D800241543F6
:100ED00001610160C361C560201CF0BDFEFFFF0021
:100EE000021C10B51378002B01D00132FAE7CC5C5C
:100EF000D4540133002CFAD110BD0000031C0B4365
:100F000030B59B0711D1031C0A680B4C0B4D14190B
:100F100094432C4202D104C30431F5E7D1B21970D5
:100F20000133002907D01212F8E70023CA5CC2542B
:100F30000133002AFAD130BDFFFEFEFE80808080A2
:100F400010B5431C820706D00130421E1278002AD9
:100F5000F8D1C01A18E002680C490D4C51189143A1
:100F6000214201D10430F6E7D4B2411C002C0AD052
:100F7000FF242402811C224205D0FF242404C11C2A
:100F8000224200D0011DC81A10BDC046FFFEFEFE61
:100F90008080808008B500F0DCFA08BD202310B501
:100FA000041CC2689A43436AE2605B6882699A42A1
:100FB0000DD000F049F8E268074B134010221343AC
:100FC000626AE3605368A361236993602360E26807
:100FD000024B1340E36010BDEFCFFFFFBFBFFFFF29
:100FE00070B50D1C061C101C141C00F023F92B7886
:100FF000722B09D0772B04D0612B20D10823114A02
:1010000004E00423022201E00023012201352978B3
:101010002B2905D0622908D104210A43033902E0B3
:1010200003210A4301390B43F0E7E26066611B07C5
:1010300006D5201C0021022200F04EF900E0002419
:10104000201C70BD0280000038B5436AC2689968F0
:10105000144B05691340C360822304681340022BBC
:1010600002D001235B421BE080235B02134017D0B8
:10107000A14200D2211C041CA94209D1636AE16883
:101080009D600023084A25600A40A360E26007E0F3
:10109000491B281C221C00F009F80028EED0E0E7CC
:1010A000181C38BDFFFFF7FFFFFFFEFFF7B5D6683E
:1010B00001900D1C141C5769F30205D51023381C30
:1010C0001E4300F067FAA061114B1E4209D0381C84
:1010D000A16900F071FA8023002811DB0D4B1E403E
:1010E000E6602A1C381C019900F072FA43005B0884
:1010F000ED1AA3695D190023A561984205D08033DC
:10110000E2681343E36001235B42181CFEBDC04646
:1011100010000200EFFFFDFFF7B5314EC51C34682B
:10112000AD080196002813D08022291CEB1C002753
:1011300052050A319C4604E02368934213D0271CD1
:10114000A468002CF8D10C3000F076F9431C0FD1C4
:10115000002043E03E68964217D17E689B19033316
:101160006360BB68A360A7686368002FF2D10CE0DE
:1011700080239B05036045608460002F02D1019BA2
:10118000186000E0B8600C3028E0AB4205DB9C45FD
:1011900003DB80239B0523601EE08B4210D9802255
:1011A000201C8021920522600C30AA005B1B821853
:1011B0004905033B6560A2601160536097600DE0D4
:1011C000002FBCD19B00C01A00F036F9431CBFD0E1
:1011D00080239B0523606560201CD4E7FEBDC046CC
:1011E0007001001010B5002812D080235B05191C77
:1011F0000C3803608268002A0AD013688B4207D13A
:10120000546843681B190333436093688360F1E7B4
:1012100010BD000010B5FFF77FFF041E05D1044983
:10122000172200F0D5F900F0A9F9201C10BDC04626
:10123000D91A0000F0B5436AC5688BB047690669E2
:101240000193AB0727D0041C2B0716D400F02AF813
:10125000381C00F099F92B0502D5301CFFF7C2FFAE
:101260000F4BAD0DAD059D4207D102A8216A20228A
:1012700000F0A8F902A800F0D5F800211822606A51
:10128000FFF788FE201C00212822FFF783FE019B28
:101290000020636201E0012040420BB0F0BDC04677
:1012A000000080AD38B5002803D000F0E5F8051C3B
:1012B0000EE0041C051C0748201800F0DDF800288B
:1012C00001D001256D42A02328345B009C42F2D15D
:1012D000281C38BD30000010F7B5C368161C0093F9
:1012E000009A3B4B041C0D1C47691A426BD0381CFA
:1012F00000F056F90190002865D1012E04D0022E8D
:1013000007D0002E5FD124E0201C00F065F82D18D6
:101310001FE0381C00F03EF9002805DA8023E2685F
:101320001343E36001234FE0626A216893689942A6
:1013300000D90B1CA1695B1821695B1AE168890659
:1013400003D55268934200DA131C834200DA031C6F
:10135000ED18002D37DB009B616A9B0404D52368E0
:101360008A689A4200D28B60A3699D420DDB206897
:101370008A68824200D2021C2069D618361AB54209
:1013800003DCCF68DE19B54207DB2023009A134344
:101390000022A26062604D6011E0ED1A009B9B0785
:1013A00001D5EF1BA760009BDB0702D5821AAA18A4
:1013B00062602023009A45199A43131C2560054A50
:1013C0001340E36001E0022301930198FEBDC04693
:1013D00003001000BFCFF7FFC3689A0705D1212291
:1013E00001200F4B40421A6018E0202219030BD550
:1013F000134202D0436A586804E0036882690069B6
:101400009B18181A013809E0134202D0436A586841
:1014100004E00368826900699B18181A7047C04687
:101420000400001010B5041CFFF78AFD011C201CED
:1014300000F0BCF810BD000070B50C4D2B68002BFF
:1014400001D10B4B2B600323C41C2E689C43341921
:10145000201C00F037F8002802D12C60301C04E07A
:101460000C220120034B40421A6070BD7401001031
:1014700078010010040000100323C26870B5134007
:10148000041C181E1AD0930605D5636A201C5E68DA
:10149000FFF784FD04E02368A2699E182369F61A09
:1014A000E268074B201C1340E360FFF7CDFD051CED
:1014B000311C201C0022FFF70FFF281C70BDC04606
:1014C000FFCFFFFF034B021C181E02D000209A42E0
:1014D000404170470000000003000B4321D4002965
:1014E00031D00122D207030901E009011209994212
:1014F000FBD9430801E0490052089942FBD900E0BA
:101500004908401A07D35241FAD3014610467047A2
:1015100049084018F7D29218FAD3401801461046ED
:101520007047CB0F00D04942021000D540425340D3
:1015300008B5FFF7D4FF0CBC521000D34042002A7C
:1015400000D549421847F446002000F001F86047F2
:1015500070478446043A09D3830707D109060B0A6A
:1015600019430B0C1943043A02C0FCD2043203D0D5
:1015700001700130013AFBD16046704718200149E3
:10158000ABBE70472600020003B469460220ABBE22
:1015900002B0704703B469460C20ABBE02B070477E
:1015A00003B469460920ABBE02B0704703B4694674
:1015B0000E20ABBE02B0704703B469460A20ABBE32
:1015C00002B070470FB469460D20ABBE04B070473F
:1015D0000FB469460520ABBE04B0704730780000F8
:1015E000300000004A756D70696E6720746F20616D
:1015F00070706C69636174696F6E210A0D00000080
:10160000506172742049443A200000000A0D000025
:101610005374617274696E672061742061646472CE
:101620003A20000046696E697368656420626566E9
:101630006F726520636865636B696E6720617420F3
:10164000616464723A2000002077697468206368DE
:1016500065636B73756D206F6620000043616C637A
:10166000756C6174696E6720666F7220696D616761
:1016700065206C656E677468206F6620000000004E
:101680002070616765730A0D00000000436F6D6D87
:10169000656E63696E6720696E7465726E616C2039
:1016A000636865636B73756D2063616C632C206682
:1016B0006F7220002062797465730A0D00000000CB
:1016C0005570646174696E6720696E7465726E61CD
:1016D0006C20666C61736820636865636B73756DFD
:1016E0002E2E2E200A0D0000496E7465726E616CFC
:1016F00020666C61736820636865636B73756D2029
:101700006368616E67656420616E642076657269E6
:10171000666965643A200000496E7465726E616C9A
:1017200020666C61736820636865636B73756D20F8
:10173000757064617465204641494C45443A200007
:101740004669727374626F6F7420666C61672063A0
:1017500068616E67656420616E6420766572696693
:101760006965643A200000004669727374626F6FA5
:101770007420666C6167206368616E6765206661CE
:10178000696C65643A2000004669727374626F6F19
:101790007420666C6167207365743A200000000055
:1017A000496D616765206C656E67746820746F2091
:1017B00062653A20000000002C2077686572652081
:1017C0004D53422069733A20000000004375727245
:1017D000656E746C79207772697474656E20696DBA
:1017E000616765206C656E6774683A2000000000D0
:1017F000496D616765206C656E67746820757064FB
:10180000617465643A200000496D616765206C650C
:101810006E67746820757064617465207374657098
:101820002032204641494C45443A2000496D6167C9
:1018300065206C656E6774682075706461746520DE
:10184000737465702031204641494C45443A20006C
:101850004669727374626F6F7420666C6167206E84
:101860006F74207365742E20497320307830302EC9
:101870000A0D0000457870656374696E6720312039
:101880006279746520636865636B73756D20666F3C
:101890007220696E7465726E616C20696D61676536
:1018A0003A20000052656365697665642063686567
:1018B000636B73756D3A2000496E7465726E616C6E
:1018C00020666C61736820636865636B73756D2057
:1018D0004F4B2E0A0D000000496E7465726E616CEC
:1018E00020666C61736820636865636B73756D2037
:1018F0004E4F542056414C49442E0A0D0000000022
:10190000E29594E29590E29590E29590E29590E2CE
:101910009590E29590E29590E29590E29590E2950F
:1019200090E29590E29590E29590E29590E2959004
:10193000E29590E29590E29590E29590E29590E2A2
:101940009590E295970A0D00E295912020202020A5
:101950002020202020202020202020202020202087
:10196000E295910A0D000000E295912020E2968810
:10197000E29688E29688E29688E2968820E2968847
:10198000E29688E29688E296882020E29688E2969F
:1019900088E29688E29688202020E295910A0D0040
:1019A000E29591202020202020E2968820E296884F
:1019B000202020E2968820E29688202020E2968847
:1019C0002020E295910A0D00E29591202020202010
:1019D00020E2968820E29688202020E2968820E265
:1019E0009688E29688E29688E29688202020E29502
:1019F000910A0D00E295912020E29688202020E2B5
:101A0000968820E29688202020E2968820E2968818
:101A1000202020202020E295910A0D00E2959120BF
:101A20002020E29688E29688E296882020E2968836
:101A3000E29688E29688E296882020E29688202026
:101A400020202020E295910A0D000000E2959AE204
:101A50009590E29590E29590E29590E29590E295CE
:101A600090E29590E29590E29590E29590E29590C3
:101A7000E29590E29590E29590E29590E29590E261
:101A80009590E29590E29590E29590E29590E2959E
:101A90009D0A0D004C31554445563030314120628D
:101AA0006F6F746C6F6164657220697320676F215A
:101AB0000A0D00004D616A6F72206572726F722E9E
:101AC0000A0D00007200770030313233343536377A
:101AD0003839616263646566002A2A2A205F43738D
:101AE00079735F616C6C6F63206661696C65640A11
:041AF00000FFFFFFF5
:041AF400F11FFF1FC0
:040000030000015D9B
:00000001FF
